{
  "_format": "hh-sol-artifact-1",
  "contractName": "Governance",
  "sourceName": "contracts/Governance.sol",
  "abi": [
    {
      "inputs": [],
      "stateMutability": "nonpayable",
      "type": "constructor"
    },
    {
      "inputs": [],
      "name": "InvalidShortString",
      "type": "error"
    },
    {
      "inputs": [
        {
          "internalType": "string",
          "name": "str",
          "type": "string"
        }
      ],
      "name": "StringTooLong",
      "type": "error"
    },
    {
      "anonymous": false,
      "inputs": [
        {
          "indexed": true,
          "internalType": "address",
          "name": "owner",
          "type": "address"
        },
        {
          "indexed": true,
          "internalType": "address",
          "name": "spender",
          "type": "address"
        },
        {
          "indexed": false,
          "internalType": "uint256",
          "name": "value",
          "type": "uint256"
        }
      ],
      "name": "Approval",
      "type": "event"
    },
    {
      "anonymous": false,
      "inputs": [
        {
          "indexed": true,
          "internalType": "address",
          "name": "delegator",
          "type": "address"
        },
        {
          "indexed": true,
          "internalType": "address",
          "name": "fromDelegate",
          "type": "address"
        },
        {
          "indexed": true,
          "internalType": "address",
          "name": "toDelegate",
          "type": "address"
        }
      ],
      "name": "DelegateChanged",
      "type": "event"
    },
    {
      "anonymous": false,
      "inputs": [
        {
          "indexed": true,
          "internalType": "address",
          "name": "delegate",
          "type": "address"
        },
        {
          "indexed": false,
          "internalType": "uint256",
          "name": "previousBalance",
          "type": "uint256"
        },
        {
          "indexed": false,
          "internalType": "uint256",
          "name": "newBalance",
          "type": "uint256"
        }
      ],
      "name": "DelegateVotesChanged",
      "type": "event"
    },
    {
      "anonymous": false,
      "inputs": [],
      "name": "EIP712DomainChanged",
      "type": "event"
    },
    {
      "anonymous": false,
      "inputs": [
        {
          "indexed": true,
          "internalType": "address",
          "name": "from",
          "type": "address"
        },
        {
          "indexed": true,
          "internalType": "address",
          "name": "to",
          "type": "address"
        },
        {
          "indexed": false,
          "internalType": "uint256",
          "name": "value",
          "type": "uint256"
        }
      ],
      "name": "Transfer",
      "type": "event"
    },
    {
      "inputs": [],
      "name": "CLOCK_MODE",
      "outputs": [
        {
          "internalType": "string",
          "name": "",
          "type": "string"
        }
      ],
      "stateMutability": "view",
      "type": "function"
    },
    {
      "inputs": [],
      "name": "DOMAIN_SEPARATOR",
      "outputs": [
        {
          "internalType": "bytes32",
          "name": "",
          "type": "bytes32"
        }
      ],
      "stateMutability": "view",
      "type": "function"
    },
    {
      "inputs": [
        {
          "internalType": "address",
          "name": "owner",
          "type": "address"
        },
        {
          "internalType": "address",
          "name": "spender",
          "type": "address"
        }
      ],
      "name": "allowance",
      "outputs": [
        {
          "internalType": "uint256",
          "name": "",
          "type": "uint256"
        }
      ],
      "stateMutability": "view",
      "type": "function"
    },
    {
      "inputs": [
        {
          "internalType": "address",
          "name": "spender",
          "type": "address"
        },
        {
          "internalType": "uint256",
          "name": "amount",
          "type": "uint256"
        }
      ],
      "name": "approve",
      "outputs": [
        {
          "internalType": "bool",
          "name": "",
          "type": "bool"
        }
      ],
      "stateMutability": "nonpayable",
      "type": "function"
    },
    {
      "inputs": [
        {
          "internalType": "address",
          "name": "account",
          "type": "address"
        }
      ],
      "name": "balanceOf",
      "outputs": [
        {
          "internalType": "uint256",
          "name": "",
          "type": "uint256"
        }
      ],
      "stateMutability": "view",
      "type": "function"
    },
    {
      "inputs": [
        {
          "internalType": "address",
          "name": "account",
          "type": "address"
        },
        {
          "internalType": "uint32",
          "name": "pos",
          "type": "uint32"
        }
      ],
      "name": "checkpoints",
      "outputs": [
        {
          "components": [
            {
              "internalType": "uint32",
              "name": "fromBlock",
              "type": "uint32"
            },
            {
              "internalType": "uint224",
              "name": "votes",
              "type": "uint224"
            }
          ],
          "internalType": "struct ERC20Votes.Checkpoint",
          "name": "",
          "type": "tuple"
        }
      ],
      "stateMutability": "view",
      "type": "function"
    },
    {
      "inputs": [],
      "name": "clock",
      "outputs": [
        {
          "internalType": "uint48",
          "name": "",
          "type": "uint48"
        }
      ],
      "stateMutability": "view",
      "type": "function"
    },
    {
      "inputs": [],
      "name": "decimals",
      "outputs": [
        {
          "internalType": "uint8",
          "name": "",
          "type": "uint8"
        }
      ],
      "stateMutability": "view",
      "type": "function"
    },
    {
      "inputs": [
        {
          "internalType": "address",
          "name": "spender",
          "type": "address"
        },
        {
          "internalType": "uint256",
          "name": "subtractedValue",
          "type": "uint256"
        }
      ],
      "name": "decreaseAllowance",
      "outputs": [
        {
          "internalType": "bool",
          "name": "",
          "type": "bool"
        }
      ],
      "stateMutability": "nonpayable",
      "type": "function"
    },
    {
      "inputs": [
        {
          "internalType": "address",
          "name": "delegatee",
          "type": "address"
        }
      ],
      "name": "delegate",
      "outputs": [],
      "stateMutability": "nonpayable",
      "type": "function"
    },
    {
      "inputs": [
        {
          "internalType": "address",
          "name": "delegatee",
          "type": "address"
        },
        {
          "internalType": "uint256",
          "name": "nonce",
          "type": "uint256"
        },
        {
          "internalType": "uint256",
          "name": "expiry",
          "type": "uint256"
        },
        {
          "internalType": "uint8",
          "name": "v",
          "type": "uint8"
        },
        {
          "internalType": "bytes32",
          "name": "r",
          "type": "bytes32"
        },
        {
          "internalType": "bytes32",
          "name": "s",
          "type": "bytes32"
        }
      ],
      "name": "delegateBySig",
      "outputs": [],
      "stateMutability": "nonpayable",
      "type": "function"
    },
    {
      "inputs": [
        {
          "internalType": "address",
          "name": "account",
          "type": "address"
        }
      ],
      "name": "delegates",
      "outputs": [
        {
          "internalType": "address",
          "name": "",
          "type": "address"
        }
      ],
      "stateMutability": "view",
      "type": "function"
    },
    {
      "inputs": [],
      "name": "eip712Domain",
      "outputs": [
        {
          "internalType": "bytes1",
          "name": "fields",
          "type": "bytes1"
        },
        {
          "internalType": "string",
          "name": "name",
          "type": "string"
        },
        {
          "internalType": "string",
          "name": "version",
          "type": "string"
        },
        {
          "internalType": "uint256",
          "name": "chainId",
          "type": "uint256"
        },
        {
          "internalType": "address",
          "name": "verifyingContract",
          "type": "address"
        },
        {
          "internalType": "bytes32",
          "name": "salt",
          "type": "bytes32"
        },
        {
          "internalType": "uint256[]",
          "name": "extensions",
          "type": "uint256[]"
        }
      ],
      "stateMutability": "view",
      "type": "function"
    },
    {
      "inputs": [
        {
          "internalType": "uint256",
          "name": "timepoint",
          "type": "uint256"
        }
      ],
      "name": "getPastTotalSupply",
      "outputs": [
        {
          "internalType": "uint256",
          "name": "",
          "type": "uint256"
        }
      ],
      "stateMutability": "view",
      "type": "function"
    },
    {
      "inputs": [
        {
          "internalType": "address",
          "name": "account",
          "type": "address"
        },
        {
          "internalType": "uint256",
          "name": "timepoint",
          "type": "uint256"
        }
      ],
      "name": "getPastVotes",
      "outputs": [
        {
          "internalType": "uint256",
          "name": "",
          "type": "uint256"
        }
      ],
      "stateMutability": "view",
      "type": "function"
    },
    {
      "inputs": [
        {
          "internalType": "address",
          "name": "account",
          "type": "address"
        }
      ],
      "name": "getVotes",
      "outputs": [
        {
          "internalType": "uint256",
          "name": "",
          "type": "uint256"
        }
      ],
      "stateMutability": "view",
      "type": "function"
    },
    {
      "inputs": [
        {
          "internalType": "address",
          "name": "spender",
          "type": "address"
        },
        {
          "internalType": "uint256",
          "name": "addedValue",
          "type": "uint256"
        }
      ],
      "name": "increaseAllowance",
      "outputs": [
        {
          "internalType": "bool",
          "name": "",
          "type": "bool"
        }
      ],
      "stateMutability": "nonpayable",
      "type": "function"
    },
    {
      "inputs": [],
      "name": "name",
      "outputs": [
        {
          "internalType": "string",
          "name": "",
          "type": "string"
        }
      ],
      "stateMutability": "view",
      "type": "function"
    },
    {
      "inputs": [
        {
          "internalType": "address",
          "name": "owner",
          "type": "address"
        }
      ],
      "name": "nonces",
      "outputs": [
        {
          "internalType": "uint256",
          "name": "",
          "type": "uint256"
        }
      ],
      "stateMutability": "view",
      "type": "function"
    },
    {
      "inputs": [
        {
          "internalType": "address",
          "name": "account",
          "type": "address"
        }
      ],
      "name": "numCheckpoints",
      "outputs": [
        {
          "internalType": "uint32",
          "name": "",
          "type": "uint32"
        }
      ],
      "stateMutability": "view",
      "type": "function"
    },
    {
      "inputs": [
        {
          "internalType": "address",
          "name": "owner",
          "type": "address"
        },
        {
          "internalType": "address",
          "name": "spender",
          "type": "address"
        },
        {
          "internalType": "uint256",
          "name": "value",
          "type": "uint256"
        },
        {
          "internalType": "uint256",
          "name": "deadline",
          "type": "uint256"
        },
        {
          "internalType": "uint8",
          "name": "v",
          "type": "uint8"
        },
        {
          "internalType": "bytes32",
          "name": "r",
          "type": "bytes32"
        },
        {
          "internalType": "bytes32",
          "name": "s",
          "type": "bytes32"
        }
      ],
      "name": "permit",
      "outputs": [],
      "stateMutability": "nonpayable",
      "type": "function"
    },
    {
      "inputs": [],
      "name": "s_maxSupply",
      "outputs": [
        {
          "internalType": "uint256",
          "name": "",
          "type": "uint256"
        }
      ],
      "stateMutability": "view",
      "type": "function"
    },
    {
      "inputs": [],
      "name": "symbol",
      "outputs": [
        {
          "internalType": "string",
          "name": "",
          "type": "string"
        }
      ],
      "stateMutability": "view",
      "type": "function"
    },
    {
      "inputs": [],
      "name": "totalSupply",
      "outputs": [
        {
          "internalType": "uint256",
          "name": "",
          "type": "uint256"
        }
      ],
      "stateMutability": "view",
      "type": "function"
    },
    {
      "inputs": [
        {
          "internalType": "address",
          "name": "to",
          "type": "address"
        },
        {
          "internalType": "uint256",
          "name": "amount",
          "type": "uint256"
        }
      ],
      "name": "transfer",
      "outputs": [
        {
          "internalType": "bool",
          "name": "",
          "type": "bool"
        }
      ],
      "stateMutability": "nonpayable",
      "type": "function"
    },
    {
      "inputs": [
        {
          "internalType": "address",
          "name": "from",
          "type": "address"
        },
        {
          "internalType": "address",
          "name": "to",
          "type": "address"
        },
        {
          "internalType": "uint256",
          "name": "amount",
          "type": "uint256"
        }
      ],
      "name": "transferFrom",
      "outputs": [
        {
          "internalType": "bool",
          "name": "",
          "type": "bool"
        }
      ],
      "stateMutability": "nonpayable",
      "type": "function"
    }
  ],
  "bytecode": "0x61016060405266038d7ea4c68000600c553480156200001d57600080fd5b506040518060400160405280600a81526020017f476f7665726e616e636500000000000000000000000000000000000000000000815250806040518060400160405280600181526020017f31000000000000000000000000000000000000000000000000000000000000008152506040518060400160405280600a81526020017f476f7665726e616e6365000000000000000000000000000000000000000000008152506040518060400160405280600281526020017f4754000000000000000000000000000000000000000000000000000000000000815250816003908162000108919062000f80565b5080600490816200011a919062000f80565b50505062000133600583620001e860201b90919060201c565b610120818152505062000151600682620001e860201b90919060201c565b6101408181525050818051906020012060e08181525050808051906020012061010081815250504660a08181525050620001906200024060201b60201c565b608081815250503073ffffffffffffffffffffffffffffffffffffffff1660c08173ffffffffffffffffffffffffffffffffffffffff1681525050505050620001e233600c546200029d60201b60201c565b6200164b565b60006020835110156200020e576200020683620002b360201b60201c565b90506200023a565b8262000220836200032060201b60201c565b600001908162000231919062000f80565b5060ff60001b90505b92915050565b60007f8b73c3c69bb8fe3d512ecc4cf759cc79239f7b179b0ffacaa9a75d522b39400f60e05161010051463060405160200162000282959493929190620010d8565b60405160208183030381529060405280519060200120905090565b620002af82826200032a60201b60201c565b5050565b600080829050601f815111156200030357826040517f305a27a9000000000000000000000000000000000000000000000000000000008152600401620002fa9190620011c4565b60405180910390fd5b80518162000311906200121a565b60001c1760001b915050919050565b6000819050919050565b6200033c8282620003e360201b60201c565b6200034c6200055060201b60201c565b7bffffffffffffffffffffffffffffffffffffffffffffffffffffffff166200037a6200057460201b60201c565b1115620003be576040517f08c379a0000000000000000000000000000000000000000000000000000000008152600401620003b59062001300565b60405180910390fd5b620003dd600b6200057e60201b6200110017836200059660201b60201c565b50505050565b600073ffffffffffffffffffffffffffffffffffffffff168273ffffffffffffffffffffffffffffffffffffffff160362000455576040517f08c379a00000000000000000000000000000000000000000000000000000000081526004016200044c9062001372565b60405180910390fd5b6200046960008383620008ac60201b60201c565b80600260008282546200047d9190620013c3565b92505081905550806000808473ffffffffffffffffffffffffffffffffffffffff1673ffffffffffffffffffffffffffffffffffffffff168152602001908152602001600020600082825401925050819055508173ffffffffffffffffffffffffffffffffffffffff16600073ffffffffffffffffffffffffffffffffffffffff167fddf252ad1be2c89b69c2b068fc378daa952ba7f163c4a11628f55a4df523b3ef83604051620005309190620013fe565b60405180910390a36200054c60008383620008b160201b60201c565b5050565b60007bffffffffffffffffffffffffffffffffffffffffffffffffffffffff905090565b6000600254905090565b600081836200058e9190620013c3565b905092915050565b60008060008580549050905060008082146200066657620005c18760018403620008c960201b60201c565b6040518060400160405290816000820160009054906101000a900463ffffffff1663ffffffff1663ffffffff1681526020016000820160049054906101000a90047bffffffffffffffffffffffffffffffffffffffffffffffffffffffff167bffffffffffffffffffffffffffffffffffffffffffffffffffffffff167bffffffffffffffffffffffffffffffffffffffffffffffffffffffff1681525050620006a2565b6040518060400160405280600063ffffffff16815260200160007bffffffffffffffffffffffffffffffffffffffffffffffffffffffff168152505b905080602001517bffffffffffffffffffffffffffffffffffffffffffffffffffffffff169350620006d584868860201c565b9250600082118015620007085750620006f3620008de60201b60201c565b65ffffffffffff16816000015163ffffffff16145b156200078b576200071f83620008f660201b60201c565b620007348860018503620008c960201b60201c565b60000160046101000a8154817bffffffffffffffffffffffffffffffffffffffffffffffffffffffff02191690837bffffffffffffffffffffffffffffffffffffffffffffffffffffffff160217905550620008a2565b866040518060400160405280620007bf620007ab620008de60201b60201c565b65ffffffffffff166200096460201b60201c565b63ffffffff168152602001620007db86620008f660201b60201c565b7bffffffffffffffffffffffffffffffffffffffffffffffffffffffff168152509080600181540180825580915050600190039060005260206000200160009091909190915060008201518160000160006101000a81548163ffffffff021916908363ffffffff16021790555060208201518160000160046101000a8154817bffffffffffffffffffffffffffffffffffffffffffffffffffffffff02191690837bffffffffffffffffffffffffffffffffffffffffffffffffffffffff16021790555050505b5050935093915050565b505050565b620008c4838383620009ba60201b60201c565b505050565b60008260005281602060002001905092915050565b6000620008f14362000a0560201b60201c565b905090565b60007bffffffffffffffffffffffffffffffffffffffffffffffffffffffff80168211156200095c576040517f08c379a0000000000000000000000000000000000000000000000000000000008152600401620009539062001491565b60405180910390fd5b819050919050565b600063ffffffff8016821115620009b2576040517f08c379a0000000000000000000000000000000000000000000000000000000008152600401620009a99062001529565b60405180910390fd5b819050919050565b620009cd83838362000a5d60201b60201c565b62000a00620009e28462000a6260201b60201c565b620009f38462000a6260201b60201c565b8362000acb60201b60201c565b505050565b600065ffffffffffff801682111562000a55576040517f08c379a000000000000000000000000000000000000000000000000000000000815260040162000a4c90620015c1565b60405180910390fd5b819050919050565b505050565b6000600960008373ffffffffffffffffffffffffffffffffffffffff1673ffffffffffffffffffffffffffffffffffffffff16815260200190815260200160002060009054906101000a900473ffffffffffffffffffffffffffffffffffffffff169050919050565b8173ffffffffffffffffffffffffffffffffffffffff168373ffffffffffffffffffffffffffffffffffffffff161415801562000b085750600081115b1562000ce957600073ffffffffffffffffffffffffffffffffffffffff168373ffffffffffffffffffffffffffffffffffffffff161462000bfb5760008062000ba2600a60008773ffffffffffffffffffffffffffffffffffffffff1673ffffffffffffffffffffffffffffffffffffffff16815260200190815260200160002062000cee60201b6200111617856200059660201b60201c565b915091508473ffffffffffffffffffffffffffffffffffffffff167fdec2bacdd2f05b59de34da9b523dff8be42e5e38e818c82fdb0bae774387a724838360405162000bf0929190620015e3565b60405180910390a250505b600073ffffffffffffffffffffffffffffffffffffffff168273ffffffffffffffffffffffffffffffffffffffff161462000ce85760008062000c8f600a60008673ffffffffffffffffffffffffffffffffffffffff1673ffffffffffffffffffffffffffffffffffffffff1681526020019081526020016000206200057e60201b6200110017856200059660201b60201c565b915091508373ffffffffffffffffffffffffffffffffffffffff167fdec2bacdd2f05b59de34da9b523dff8be42e5e38e818c82fdb0bae774387a724838360405162000cdd929190620015e3565b60405180910390a250505b5b505050565b6000818362000cfe919062001610565b905092915050565b600081519050919050565b7f4e487b7100000000000000000000000000000000000000000000000000000000600052604160045260246000fd5b7f4e487b7100000000000000000000000000000000000000000000000000000000600052602260045260246000fd5b6000600282049050600182168062000d8857607f821691505b60208210810362000d9e5762000d9d62000d40565b5b50919050565b60008190508160005260206000209050919050565b60006020601f8301049050919050565b600082821b905092915050565b60006008830262000e087fffffffffffffffffffffffffffffffffffffffffffffffffffffffffffffffff8262000dc9565b62000e14868362000dc9565b95508019841693508086168417925050509392505050565b6000819050919050565b6000819050919050565b600062000e6162000e5b62000e558462000e2c565b62000e36565b62000e2c565b9050919050565b6000819050919050565b62000e7d8362000e40565b62000e9562000e8c8262000e68565b84845462000dd6565b825550505050565b600090565b62000eac62000e9d565b62000eb981848462000e72565b505050565b5b8181101562000ee15762000ed560008262000ea2565b60018101905062000ebf565b5050565b601f82111562000f305762000efa8162000da4565b62000f058462000db9565b8101602085101562000f15578190505b62000f2d62000f248562000db9565b83018262000ebe565b50505b505050565b600082821c905092915050565b600062000f556000198460080262000f35565b1980831691505092915050565b600062000f70838362000f42565b9150826002028217905092915050565b62000f8b8262000d06565b67ffffffffffffffff81111562000fa75762000fa662000d11565b5b62000fb3825462000d6f565b62000fc082828562000ee5565b600060209050601f83116001811462000ff8576000841562000fe3578287015190505b62000fef858262000f62565b8655506200105f565b601f198416620010088662000da4565b60005b8281101562001032578489015182556001820191506020850194506020810190506200100b565b868310156200105257848901516200104e601f89168262000f42565b8355505b6001600288020188555050505b505050505050565b6000819050919050565b6200107c8162001067565b82525050565b6200108d8162000e2c565b82525050565b600073ffffffffffffffffffffffffffffffffffffffff82169050919050565b6000620010c08262001093565b9050919050565b620010d281620010b3565b82525050565b600060a082019050620010ef600083018862001071565b620010fe602083018762001071565b6200110d604083018662001071565b6200111c606083018562001082565b6200112b6080830184620010c7565b9695505050505050565b600082825260208201905092915050565b60005b838110156200116657808201518184015260208101905062001149565b60008484015250505050565b6000601f19601f8301169050919050565b6000620011908262000d06565b6200119c818562001135565b9350620011ae81856020860162001146565b620011b98162001172565b840191505092915050565b60006020820190508181036000830152620011e0818462001183565b905092915050565b600081519050919050565b6000819050602082019050919050565b600062001211825162001067565b80915050919050565b60006200122782620011e8565b826200123384620011f3565b9050620012408162001203565b9250602082101562001283576200127e7fffffffffffffffffffffffffffffffffffffffffffffffffffffffffffffffff8360200360080262000dc9565b831692505b5050919050565b7f4552433230566f7465733a20746f74616c20737570706c79207269736b73206f60008201527f766572666c6f77696e6720766f74657300000000000000000000000000000000602082015250565b6000620012e860308362001135565b9150620012f5826200128a565b604082019050919050565b600060208201905081810360008301526200131b81620012d9565b9050919050565b7f45524332303a206d696e7420746f20746865207a65726f206164647265737300600082015250565b60006200135a601f8362001135565b9150620013678262001322565b602082019050919050565b600060208201905081810360008301526200138d816200134b565b9050919050565b7f4e487b7100000000000000000000000000000000000000000000000000000000600052601160045260246000fd5b6000620013d08262000e2c565b9150620013dd8362000e2c565b9250828201905080821115620013f857620013f762001394565b5b92915050565b600060208201905062001415600083018462001082565b92915050565b7f53616665436173743a2076616c756520646f65736e27742066697420696e203260008201527f3234206269747300000000000000000000000000000000000000000000000000602082015250565b60006200147960278362001135565b915062001486826200141b565b604082019050919050565b60006020820190508181036000830152620014ac816200146a565b9050919050565b7f53616665436173743a2076616c756520646f65736e27742066697420696e203360008201527f3220626974730000000000000000000000000000000000000000000000000000602082015250565b60006200151160268362001135565b91506200151e82620014b3565b604082019050919050565b60006020820190508181036000830152620015448162001502565b9050919050565b7f53616665436173743a2076616c756520646f65736e27742066697420696e203460008201527f3820626974730000000000000000000000000000000000000000000000000000602082015250565b6000620015a960268362001135565b9150620015b6826200154b565b604082019050919050565b60006020820190508181036000830152620015dc816200159a565b9050919050565b6000604082019050620015fa600083018562001082565b62001609602083018462001082565b9392505050565b60006200161d8262000e2c565b91506200162a8362000e2c565b925082820390508181111562001645576200164462001394565b5b92915050565b60805160a05160c05160e051610100516101205161014051613bee620016a660003960006109bf0152600061098b01526000611b7c01526000611b5b0152600061160301526000611659015260006116820152613bee6000f3fe608060405234801561001057600080fd5b506004361061018e5760003560e01c806370a08231116100de5780639ab24eb011610097578063c3cda52011610071578063c3cda52014610503578063d505accf1461051f578063dd62ed3e1461053b578063f1127ed81461056b5761018e565b80639ab24eb014610473578063a457c2d7146104a3578063a9059cbb146104d35761018e565b806370a08231146103835780637ecebe00146103b357806384b0196e146103e35780638e539e8c1461040757806391ddadf41461043757806395d89b41146104555761018e565b8063395093511161014b578063587cde1e11610125578063587cde1e146102e95780635c19a95c146103195780635d641847146103355780636fcfff45146103535761018e565b8063395093511461026b5780633a46b1a81461029b5780634bf5d7e9146102cb5761018e565b806306fdde0314610193578063095ea7b3146101b157806318160ddd146101e157806323b872dd146101ff578063313ce5671461022f5780633644e5151461024d575b600080fd5b61019b61059b565b6040516101a8919061279a565b60405180910390f35b6101cb60048036038101906101c69190612855565b61062d565b6040516101d891906128b0565b60405180910390f35b6101e9610650565b6040516101f691906128da565b60405180910390f35b610219600480360381019061021491906128f5565b61065a565b60405161022691906128b0565b60405180910390f35b610237610689565b6040516102449190612964565b60405180910390f35b610255610692565b6040516102629190612998565b60405180910390f35b61028560048036038101906102809190612855565b6106a1565b60405161029291906128b0565b60405180910390f35b6102b560048036038101906102b09190612855565b6106d8565b6040516102c291906128da565b60405180910390f35b6102d361077b565b6040516102e0919061279a565b60405180910390f35b61030360048036038101906102fe91906129b3565b610809565b60405161031091906129ef565b60405180910390f35b610333600480360381019061032e91906129b3565b610872565b005b61033d610886565b60405161034a91906128da565b60405180910390f35b61036d600480360381019061036891906129b3565b61088c565b60405161037a9190612a29565b60405180910390f35b61039d600480360381019061039891906129b3565b6108e0565b6040516103aa91906128da565b60405180910390f35b6103cd60048036038101906103c891906129b3565b610928565b6040516103da91906128da565b60405180910390f35b6103eb610978565b6040516103fe9796959493929190612b3d565b60405180910390f35b610421600480360381019061041c9190612bc1565b610a7a565b60405161042e91906128da565b60405180910390f35b61043f610adf565b60405161044c9190612c0f565b60405180910390f35b61045d610aef565b60405161046a919061279a565b60405180910390f35b61048d600480360381019061048891906129b3565b610b81565b60405161049a91906128da565b60405180910390f35b6104bd60048036038101906104b89190612855565b610c89565b6040516104ca91906128b0565b60405180910390f35b6104ed60048036038101906104e89190612855565b610d00565b6040516104fa91906128b0565b60405180910390f35b61051d60048036038101906105189190612c82565b610d23565b005b61053960048036038101906105349190612d0f565b610e27565b005b61055560048036038101906105509190612db1565b610f69565b60405161056291906128da565b60405180910390f35b61058560048036038101906105809190612e1d565b610ff0565b6040516105929190612ed2565b60405180910390f35b6060600380546105aa90612f1c565b80601f01602080910402602001604051908101604052809291908181526020018280546105d690612f1c565b80156106235780601f106105f857610100808354040283529160200191610623565b820191906000526020600020905b81548152906001019060200180831161060657829003601f168201915b5050505050905090565b60008061063861112c565b9050610645818585611134565b600191505092915050565b6000600254905090565b60008061066561112c565b90506106728582856112fd565b61067d858585611389565b60019150509392505050565b60006012905090565b600061069c6115ff565b905090565b6000806106ac61112c565b90506106cd8185856106be8589610f69565b6106c89190612f7c565b611134565b600191505092915050565b60006106e2610adf565b65ffffffffffff16821061072b576040517f08c379a000000000000000000000000000000000000000000000000000000000815260040161072290612ffc565b60405180910390fd5b610773600a60008573ffffffffffffffffffffffffffffffffffffffff1673ffffffffffffffffffffffffffffffffffffffff168152602001908152602001600020836116b6565b905092915050565b606043610786610adf565b65ffffffffffff16146107ce576040517f08c379a00000000000000000000000000000000000000000000000000000000081526004016107c590613068565b60405180910390fd5b6040518060400160405280601d81526020017f6d6f64653d626c6f636b6e756d6265722666726f6d3d64656661756c74000000815250905090565b6000600960008373ffffffffffffffffffffffffffffffffffffffff1673ffffffffffffffffffffffffffffffffffffffff16815260200190815260200160002060009054906101000a900473ffffffffffffffffffffffffffffffffffffffff169050919050565b61088361087d61112c565b826117fe565b50565b600c5481565b60006108d9600a60008473ffffffffffffffffffffffffffffffffffffffff1673ffffffffffffffffffffffffffffffffffffffff16815260200190815260200160002080549050611918565b9050919050565b60008060008373ffffffffffffffffffffffffffffffffffffffff1673ffffffffffffffffffffffffffffffffffffffff168152602001908152602001600020549050919050565b6000610971600760008473ffffffffffffffffffffffffffffffffffffffff1673ffffffffffffffffffffffffffffffffffffffff16815260200190815260200160002061196b565b9050919050565b6000606080600080600060606109b860057f000000000000000000000000000000000000000000000000000000000000000061197990919063ffffffff16565b6109ec60067f000000000000000000000000000000000000000000000000000000000000000061197990919063ffffffff16565b46306000801b600067ffffffffffffffff811115610a0d57610a0c613088565b5b604051908082528060200260200182016040528015610a3b5781602001602082028036833780820191505090505b507f0f00000000000000000000000000000000000000000000000000000000000000959493929190965096509650965096509650965090919293949596565b6000610a84610adf565b65ffffffffffff168210610acd576040517f08c379a0000000000000000000000000000000000000000000000000000000008152600401610ac490612ffc565b60405180910390fd5b610ad8600b836116b6565b9050919050565b6000610aea43611a29565b905090565b606060048054610afe90612f1c565b80601f0160208091040260200160405190810160405280929190818152602001828054610b2a90612f1c565b8015610b775780601f10610b4c57610100808354040283529160200191610b77565b820191906000526020600020905b815481529060010190602001808311610b5a57829003601f168201915b5050505050905090565b600080600a60008473ffffffffffffffffffffffffffffffffffffffff1673ffffffffffffffffffffffffffffffffffffffff16815260200190815260200160002080549050905060008114610c6057600a60008473ffffffffffffffffffffffffffffffffffffffff1673ffffffffffffffffffffffffffffffffffffffff1681526020019081526020016000206001820381548110610c2557610c246130b7565b5b9060005260206000200160000160049054906101000a90047bffffffffffffffffffffffffffffffffffffffffffffffffffffffff16610c63565b60005b7bffffffffffffffffffffffffffffffffffffffffffffffffffffffff16915050919050565b600080610c9461112c565b90506000610ca28286610f69565b905083811015610ce7576040517f08c379a0000000000000000000000000000000000000000000000000000000008152600401610cde90613158565b60405180910390fd5b610cf48286868403611134565b60019250505092915050565b600080610d0b61112c565b9050610d18818585611389565b600191505092915050565b83421115610d66576040517f08c379a0000000000000000000000000000000000000000000000000000000008152600401610d5d906131c4565b60405180910390fd5b6000610dc8610dc07fe48329057bfd03d55e49b547132e39cffd9c1820ad7b9d4c5307691425d15adf898989604051602001610da594939291906131e4565b60405160208183030381529060405280519060200120611a7e565b858585611a98565b9050610dd381611ac3565b8614610e14576040517f08c379a0000000000000000000000000000000000000000000000000000000008152600401610e0b90613275565b60405180910390fd5b610e1e81886117fe565b50505050505050565b83421115610e6a576040517f08c379a0000000000000000000000000000000000000000000000000000000008152600401610e61906132e1565b60405180910390fd5b60007f6e71edae12b1b97f4d1f60370fef10105fa2faae0126114a169c64845d6126c9888888610e998c611ac3565b89604051602001610eaf96959493929190613301565b6040516020818303038152906040528051906020012090506000610ed282611a7e565b90506000610ee282878787611a98565b90508973ffffffffffffffffffffffffffffffffffffffff168173ffffffffffffffffffffffffffffffffffffffff1614610f52576040517f08c379a0000000000000000000000000000000000000000000000000000000008152600401610f49906133ae565b60405180910390fd5b610f5d8a8a8a611134565b50505050505050505050565b6000600160008473ffffffffffffffffffffffffffffffffffffffff1673ffffffffffffffffffffffffffffffffffffffff16815260200190815260200160002060008373ffffffffffffffffffffffffffffffffffffffff1673ffffffffffffffffffffffffffffffffffffffff16815260200190815260200160002054905092915050565b610ff86126cc565b600a60008473ffffffffffffffffffffffffffffffffffffffff1673ffffffffffffffffffffffffffffffffffffffff1681526020019081526020016000208263ffffffff168154811061104f5761104e6130b7565b5b906000526020600020016040518060400160405290816000820160009054906101000a900463ffffffff1663ffffffff1663ffffffff1681526020016000820160049054906101000a90047bffffffffffffffffffffffffffffffffffffffffffffffffffffffff167bffffffffffffffffffffffffffffffffffffffffffffffffffffffff167bffffffffffffffffffffffffffffffffffffffffffffffffffffffff1681525050905092915050565b6000818361110e9190612f7c565b905092915050565b6000818361112491906133ce565b905092915050565b600033905090565b600073ffffffffffffffffffffffffffffffffffffffff168373ffffffffffffffffffffffffffffffffffffffff16036111a3576040517f08c379a000000000000000000000000000000000000000000000000000000000815260040161119a90613474565b60405180910390fd5b600073ffffffffffffffffffffffffffffffffffffffff168273ffffffffffffffffffffffffffffffffffffffff1603611212576040517f08c379a000000000000000000000000000000000000000000000000000000000815260040161120990613506565b60405180910390fd5b80600160008573ffffffffffffffffffffffffffffffffffffffff1673ffffffffffffffffffffffffffffffffffffffff16815260200190815260200160002060008473ffffffffffffffffffffffffffffffffffffffff1673ffffffffffffffffffffffffffffffffffffffff168152602001908152602001600020819055508173ffffffffffffffffffffffffffffffffffffffff168373ffffffffffffffffffffffffffffffffffffffff167f8c5be1e5ebec7d5bd14f71427d1e84f3dd0314c0f7b2291e5b200ac8c7c3b925836040516112f091906128da565b60405180910390a3505050565b60006113098484610f69565b90507fffffffffffffffffffffffffffffffffffffffffffffffffffffffffffffffff81146113835781811015611375576040517f08c379a000000000000000000000000000000000000000000000000000000000815260040161136c90613572565b60405180910390fd5b6113828484848403611134565b5b50505050565b600073ffffffffffffffffffffffffffffffffffffffff168373ffffffffffffffffffffffffffffffffffffffff16036113f8576040517f08c379a00000000000000000000000000000000000000000000000000000000081526004016113ef90613604565b60405180910390fd5b600073ffffffffffffffffffffffffffffffffffffffff168273ffffffffffffffffffffffffffffffffffffffff1603611467576040517f08c379a000000000000000000000000000000000000000000000000000000000815260040161145e90613696565b60405180910390fd5b611472838383611b21565b60008060008573ffffffffffffffffffffffffffffffffffffffff1673ffffffffffffffffffffffffffffffffffffffff168152602001908152602001600020549050818110156114f8576040517f08c379a00000000000000000000000000000000000000000000000000000000081526004016114ef90613728565b60405180910390fd5b8181036000808673ffffffffffffffffffffffffffffffffffffffff1673ffffffffffffffffffffffffffffffffffffffff16815260200190815260200160002081905550816000808573ffffffffffffffffffffffffffffffffffffffff1673ffffffffffffffffffffffffffffffffffffffff168152602001908152602001600020600082825401925050819055508273ffffffffffffffffffffffffffffffffffffffff168473ffffffffffffffffffffffffffffffffffffffff167fddf252ad1be2c89b69c2b068fc378daa952ba7f163c4a11628f55a4df523b3ef846040516115e691906128da565b60405180910390a36115f9848484611b26565b50505050565b60007f000000000000000000000000000000000000000000000000000000000000000073ffffffffffffffffffffffffffffffffffffffff163073ffffffffffffffffffffffffffffffffffffffff1614801561167b57507f000000000000000000000000000000000000000000000000000000000000000046145b156116a8577f000000000000000000000000000000000000000000000000000000000000000090506116b3565b6116b0611b36565b90505b90565b60008083805490509050600080829050600583111561172c5760006116da84611bcc565b846116e591906133ce565b9050856116f28883611cc5565b60000160009054906101000a900463ffffffff1663ffffffff16111561171a5780915061172a565b6001816117279190612f7c565b92505b505b5b8082101561178c5760006117418383611cda565b90508561174e8883611cc5565b60000160009054906101000a900463ffffffff1663ffffffff16111561177657809150611786565b6001816117839190612f7c565b92505b5061172d565b600081146117d2576117a18660018303611cc5565b60000160049054906101000a90047bffffffffffffffffffffffffffffffffffffffffffffffffffffffff166117d5565b60005b7bffffffffffffffffffffffffffffffffffffffffffffffffffffffff16935050505092915050565b600061180983610809565b90506000611816846108e0565b905082600960008673ffffffffffffffffffffffffffffffffffffffff1673ffffffffffffffffffffffffffffffffffffffff16815260200190815260200160002060006101000a81548173ffffffffffffffffffffffffffffffffffffffff021916908373ffffffffffffffffffffffffffffffffffffffff1602179055508273ffffffffffffffffffffffffffffffffffffffff168273ffffffffffffffffffffffffffffffffffffffff168573ffffffffffffffffffffffffffffffffffffffff167f3134e8a2e6d97e929a7e54011ea5485d7d196dd5f0ba4d4ef95803e8e3fc257f60405160405180910390a4611912828483611d00565b50505050565b600063ffffffff8016821115611963576040517f08c379a000000000000000000000000000000000000000000000000000000000815260040161195a906137ba565b60405180910390fd5b819050919050565b600081600001549050919050565b606060ff60001b83146119965761198f83611ef9565b9050611a23565b8180546119a290612f1c565b80601f01602080910402602001604051908101604052809291908181526020018280546119ce90612f1c565b8015611a1b5780601f106119f057610100808354040283529160200191611a1b565b820191906000526020600020905b8154815290600101906020018083116119fe57829003601f168201915b505050505090505b92915050565b600065ffffffffffff8016821115611a76576040517f08c379a0000000000000000000000000000000000000000000000000000000008152600401611a6d9061384c565b60405180910390fd5b819050919050565b6000611a91611a8b6115ff565b83611f6d565b9050919050565b6000806000611aa987878787611fae565b91509150611ab681612090565b8192505050949350505050565b600080600760008473ffffffffffffffffffffffffffffffffffffffff1673ffffffffffffffffffffffffffffffffffffffff1681526020019081526020016000209050611b108161196b565b9150611b1b816121f6565b50919050565b505050565b611b3183838361220c565b505050565b60007f8b73c3c69bb8fe3d512ecc4cf759cc79239f7b179b0ffacaa9a75d522b39400f7f00000000000000000000000000000000000000000000000000000000000000007f00000000000000000000000000000000000000000000000000000000000000004630604051602001611bb195949392919061386c565b60405160208183030381529060405280519060200120905090565b6000808203611bde5760009050611cc0565b60006001611beb84612237565b901c6001901b90506001818481611c0557611c046138bf565b5b048201901c90506001818481611c1e57611c1d6138bf565b5b048201901c90506001818481611c3757611c366138bf565b5b048201901c90506001818481611c5057611c4f6138bf565b5b048201901c90506001818481611c6957611c686138bf565b5b048201901c90506001818481611c8257611c816138bf565b5b048201901c90506001818481611c9b57611c9a6138bf565b5b048201901c9050611cbc81828581611cb657611cb56138bf565b5b04612318565b9150505b919050565b60008260005281602060002001905092915050565b60006002828418611ceb91906138ee565b828416611cf89190612f7c565b905092915050565b8173ffffffffffffffffffffffffffffffffffffffff168373ffffffffffffffffffffffffffffffffffffffff1614158015611d3c5750600081115b15611ef457600073ffffffffffffffffffffffffffffffffffffffff168373ffffffffffffffffffffffffffffffffffffffff1614611e1a57600080611dc3600a60008773ffffffffffffffffffffffffffffffffffffffff1673ffffffffffffffffffffffffffffffffffffffff16815260200190815260200160002061111685612331565b915091508473ffffffffffffffffffffffffffffffffffffffff167fdec2bacdd2f05b59de34da9b523dff8be42e5e38e818c82fdb0bae774387a7248383604051611e0f92919061391f565b60405180910390a250505b600073ffffffffffffffffffffffffffffffffffffffff168273ffffffffffffffffffffffffffffffffffffffff1614611ef357600080611e9c600a60008673ffffffffffffffffffffffffffffffffffffffff1673ffffffffffffffffffffffffffffffffffffffff16815260200190815260200160002061110085612331565b915091508373ffffffffffffffffffffffffffffffffffffffff167fdec2bacdd2f05b59de34da9b523dff8be42e5e38e818c82fdb0bae774387a7248383604051611ee892919061391f565b60405180910390a250505b5b505050565b60606000611f068361260c565b90506000602067ffffffffffffffff811115611f2557611f24613088565b5b6040519080825280601f01601f191660200182016040528015611f575781602001600182028036833780820191505090505b5090508181528360208201528092505050919050565b60006040517f190100000000000000000000000000000000000000000000000000000000000081528360028201528260228201526042812091505092915050565b6000807f7fffffffffffffffffffffffffffffff5d576e7357a4501ddfe92f46681b20a08360001c1115611fe9576000600391509150612087565b60006001878787876040516000815260200160405260405161200e9493929190613948565b6020604051602081039080840390855afa158015612030573d6000803e3d6000fd5b505050602060405103519050600073ffffffffffffffffffffffffffffffffffffffff168173ffffffffffffffffffffffffffffffffffffffff160361207e57600060019250925050612087565b80600092509250505b94509492505050565b600060048111156120a4576120a361398d565b5b8160048111156120b7576120b661398d565b5b03156121f357600160048111156120d1576120d061398d565b5b8160048111156120e4576120e361398d565b5b03612124576040517f08c379a000000000000000000000000000000000000000000000000000000000815260040161211b90613a08565b60405180910390fd5b600260048111156121385761213761398d565b5b81600481111561214b5761214a61398d565b5b0361218b576040517f08c379a000000000000000000000000000000000000000000000000000000000815260040161218290613a74565b60405180910390fd5b6003600481111561219f5761219e61398d565b5b8160048111156121b2576121b161398d565b5b036121f2576040517f08c379a00000000000000000000000000000000000000000000000000000000081526004016121e990613b06565b60405180910390fd5b5b50565b6001816000016000828254019250508190555050565b61221783838361265c565b61223261222384610809565b61222c84610809565b83611d00565b505050565b600080600090506000608084901c111561225957608083901c92506080810190505b6000604084901c111561227457604083901c92506040810190505b6000602084901c111561228f57602083901c92506020810190505b6000601084901c11156122aa57601083901c92506010810190505b6000600884901c11156122c557600883901c92506008810190505b6000600484901c11156122e057600483901c92506004810190505b6000600284901c11156122fb57600283901c92506002810190505b6000600184901c111561230f576001810190505b80915050919050565b60008183106123275781612329565b825b905092915050565b60008060008580549050905060008082146123f7576123538760018403611cc5565b6040518060400160405290816000820160009054906101000a900463ffffffff1663ffffffff1663ffffffff1681526020016000820160049054906101000a90047bffffffffffffffffffffffffffffffffffffffffffffffffffffffff167bffffffffffffffffffffffffffffffffffffffffffffffffffffffff167bffffffffffffffffffffffffffffffffffffffffffffffffffffffff1681525050612433565b6040518060400160405280600063ffffffff16815260200160007bffffffffffffffffffffffffffffffffffffffffffffffffffffffff168152505b905080602001517bffffffffffffffffffffffffffffffffffffffffffffffffffffffff16935061246884868863ffffffff16565b9250600082118015612492575061247d610adf565b65ffffffffffff16816000015163ffffffff16145b15612503576124a083612661565b6124ad8860018503611cc5565b60000160046101000a8154817bffffffffffffffffffffffffffffffffffffffffffffffffffffffff02191690837bffffffffffffffffffffffffffffffffffffffffffffffffffffffff160217905550612602565b86604051806040016040528061252761251a610adf565b65ffffffffffff16611918565b63ffffffff16815260200161253b86612661565b7bffffffffffffffffffffffffffffffffffffffffffffffffffffffff168152509080600181540180825580915050600190039060005260206000200160009091909190915060008201518160000160006101000a81548163ffffffff021916908363ffffffff16021790555060208201518160000160046101000a8154817bffffffffffffffffffffffffffffffffffffffffffffffffffffffff02191690837bffffffffffffffffffffffffffffffffffffffffffffffffffffffff16021790555050505b5050935093915050565b60008060ff8360001c169050601f811115612653576040517fb3512b0c00000000000000000000000000000000000000000000000000000000815260040160405180910390fd5b80915050919050565b505050565b60007bffffffffffffffffffffffffffffffffffffffffffffffffffffffff80168211156126c4576040517f08c379a00000000000000000000000000000000000000000000000000000000081526004016126bb90613b98565b60405180910390fd5b819050919050565b6040518060400160405280600063ffffffff16815260200160007bffffffffffffffffffffffffffffffffffffffffffffffffffffffff1681525090565b600081519050919050565b600082825260208201905092915050565b60005b83811015612744578082015181840152602081019050612729565b60008484015250505050565b6000601f19601f8301169050919050565b600061276c8261270a565b6127768185612715565b9350612786818560208601612726565b61278f81612750565b840191505092915050565b600060208201905081810360008301526127b48184612761565b905092915050565b600080fd5b600073ffffffffffffffffffffffffffffffffffffffff82169050919050565b60006127ec826127c1565b9050919050565b6127fc816127e1565b811461280757600080fd5b50565b600081359050612819816127f3565b92915050565b6000819050919050565b6128328161281f565b811461283d57600080fd5b50565b60008135905061284f81612829565b92915050565b6000806040838503121561286c5761286b6127bc565b5b600061287a8582860161280a565b925050602061288b85828601612840565b9150509250929050565b60008115159050919050565b6128aa81612895565b82525050565b60006020820190506128c560008301846128a1565b92915050565b6128d48161281f565b82525050565b60006020820190506128ef60008301846128cb565b92915050565b60008060006060848603121561290e5761290d6127bc565b5b600061291c8682870161280a565b935050602061292d8682870161280a565b925050604061293e86828701612840565b9150509250925092565b600060ff82169050919050565b61295e81612948565b82525050565b60006020820190506129796000830184612955565b92915050565b6000819050919050565b6129928161297f565b82525050565b60006020820190506129ad6000830184612989565b92915050565b6000602082840312156129c9576129c86127bc565b5b60006129d78482850161280a565b91505092915050565b6129e9816127e1565b82525050565b6000602082019050612a0460008301846129e0565b92915050565b600063ffffffff82169050919050565b612a2381612a0a565b82525050565b6000602082019050612a3e6000830184612a1a565b92915050565b60007fff0000000000000000000000000000000000000000000000000000000000000082169050919050565b612a7981612a44565b82525050565b600081519050919050565b600082825260208201905092915050565b6000819050602082019050919050565b612ab48161281f565b82525050565b6000612ac68383612aab565b60208301905092915050565b6000602082019050919050565b6000612aea82612a7f565b612af48185612a8a565b9350612aff83612a9b565b8060005b83811015612b30578151612b178882612aba565b9750612b2283612ad2565b925050600181019050612b03565b5085935050505092915050565b600060e082019050612b52600083018a612a70565b8181036020830152612b648189612761565b90508181036040830152612b788188612761565b9050612b8760608301876128cb565b612b9460808301866129e0565b612ba160a0830185612989565b81810360c0830152612bb38184612adf565b905098975050505050505050565b600060208284031215612bd757612bd66127bc565b5b6000612be584828501612840565b91505092915050565b600065ffffffffffff82169050919050565b612c0981612bee565b82525050565b6000602082019050612c246000830184612c00565b92915050565b612c3381612948565b8114612c3e57600080fd5b50565b600081359050612c5081612c2a565b92915050565b612c5f8161297f565b8114612c6a57600080fd5b50565b600081359050612c7c81612c56565b92915050565b60008060008060008060c08789031215612c9f57612c9e6127bc565b5b6000612cad89828a0161280a565b9650506020612cbe89828a01612840565b9550506040612ccf89828a01612840565b9450506060612ce089828a01612c41565b9350506080612cf189828a01612c6d565b92505060a0612d0289828a01612c6d565b9150509295509295509295565b600080600080600080600060e0888a031215612d2e57612d2d6127bc565b5b6000612d3c8a828b0161280a565b9750506020612d4d8a828b0161280a565b9650506040612d5e8a828b01612840565b9550506060612d6f8a828b01612840565b9450506080612d808a828b01612c41565b93505060a0612d918a828b01612c6d565b92505060c0612da28a828b01612c6d565b91505092959891949750929550565b60008060408385031215612dc857612dc76127bc565b5b6000612dd68582860161280a565b9250506020612de78582860161280a565b9150509250929050565b612dfa81612a0a565b8114612e0557600080fd5b50565b600081359050612e1781612df1565b92915050565b60008060408385031215612e3457612e336127bc565b5b6000612e428582860161280a565b9250506020612e5385828601612e08565b9150509250929050565b612e6681612a0a565b82525050565b60007bffffffffffffffffffffffffffffffffffffffffffffffffffffffff82169050919050565b612e9d81612e6c565b82525050565b604082016000820151612eb96000850182612e5d565b506020820151612ecc6020850182612e94565b50505050565b6000604082019050612ee76000830184612ea3565b92915050565b7f4e487b7100000000000000000000000000000000000000000000000000000000600052602260045260246000fd5b60006002820490506001821680612f3457607f821691505b602082108103612f4757612f46612eed565b5b50919050565b7f4e487b7100000000000000000000000000000000000000000000000000000000600052601160045260246000fd5b6000612f878261281f565b9150612f928361281f565b9250828201905080821115612faa57612fa9612f4d565b5b92915050565b7f4552433230566f7465733a20667574757265206c6f6f6b757000000000000000600082015250565b6000612fe6601983612715565b9150612ff182612fb0565b602082019050919050565b6000602082019050818103600083015261301581612fd9565b9050919050565b7f4552433230566f7465733a2062726f6b656e20636c6f636b206d6f6465000000600082015250565b6000613052601d83612715565b915061305d8261301c565b602082019050919050565b6000602082019050818103600083015261308181613045565b9050919050565b7f4e487b7100000000000000000000000000000000000000000000000000000000600052604160045260246000fd5b7f4e487b7100000000000000000000000000000000000000000000000000000000600052603260045260246000fd5b7f45524332303a2064656372656173656420616c6c6f77616e63652062656c6f7760008201527f207a65726f000000000000000000000000000000000000000000000000000000602082015250565b6000613142602583612715565b915061314d826130e6565b604082019050919050565b6000602082019050818103600083015261317181613135565b9050919050565b7f4552433230566f7465733a207369676e61747572652065787069726564000000600082015250565b60006131ae601d83612715565b91506131b982613178565b602082019050919050565b600060208201905081810360008301526131dd816131a1565b9050919050565b60006080820190506131f96000830187612989565b61320660208301866129e0565b61321360408301856128cb565b61322060608301846128cb565b95945050505050565b7f4552433230566f7465733a20696e76616c6964206e6f6e636500000000000000600082015250565b600061325f601983612715565b915061326a82613229565b602082019050919050565b6000602082019050818103600083015261328e81613252565b9050919050565b7f45524332305065726d69743a206578706972656420646561646c696e65000000600082015250565b60006132cb601d83612715565b91506132d682613295565b602082019050919050565b600060208201905081810360008301526132fa816132be565b9050919050565b600060c0820190506133166000830189612989565b61332360208301886129e0565b61333060408301876129e0565b61333d60608301866128cb565b61334a60808301856128cb565b61335760a08301846128cb565b979650505050505050565b7f45524332305065726d69743a20696e76616c6964207369676e61747572650000600082015250565b6000613398601e83612715565b91506133a382613362565b602082019050919050565b600060208201905081810360008301526133c78161338b565b9050919050565b60006133d98261281f565b91506133e48361281f565b92508282039050818111156133fc576133fb612f4d565b5b92915050565b7f45524332303a20617070726f76652066726f6d20746865207a65726f2061646460008201527f7265737300000000000000000000000000000000000000000000000000000000602082015250565b600061345e602483612715565b915061346982613402565b604082019050919050565b6000602082019050818103600083015261348d81613451565b9050919050565b7f45524332303a20617070726f766520746f20746865207a65726f20616464726560008201527f7373000000000000000000000000000000000000000000000000000000000000602082015250565b60006134f0602283612715565b91506134fb82613494565b604082019050919050565b6000602082019050818103600083015261351f816134e3565b9050919050565b7f45524332303a20696e73756666696369656e7420616c6c6f77616e6365000000600082015250565b600061355c601d83612715565b915061356782613526565b602082019050919050565b6000602082019050818103600083015261358b8161354f565b9050919050565b7f45524332303a207472616e736665722066726f6d20746865207a65726f20616460008201527f6472657373000000000000000000000000000000000000000000000000000000602082015250565b60006135ee602583612715565b91506135f982613592565b604082019050919050565b6000602082019050818103600083015261361d816135e1565b9050919050565b7f45524332303a207472616e7366657220746f20746865207a65726f206164647260008201527f6573730000000000000000000000000000000000000000000000000000000000602082015250565b6000613680602383612715565b915061368b82613624565b604082019050919050565b600060208201905081810360008301526136af81613673565b9050919050565b7f45524332303a207472616e7366657220616d6f756e742065786365656473206260008201527f616c616e63650000000000000000000000000000000000000000000000000000602082015250565b6000613712602683612715565b915061371d826136b6565b604082019050919050565b6000602082019050818103600083015261374181613705565b9050919050565b7f53616665436173743a2076616c756520646f65736e27742066697420696e203360008201527f3220626974730000000000000000000000000000000000000000000000000000602082015250565b60006137a4602683612715565b91506137af82613748565b604082019050919050565b600060208201905081810360008301526137d381613797565b9050919050565b7f53616665436173743a2076616c756520646f65736e27742066697420696e203460008201527f3820626974730000000000000000000000000000000000000000000000000000602082015250565b6000613836602683612715565b9150613841826137da565b604082019050919050565b6000602082019050818103600083015261386581613829565b9050919050565b600060a0820190506138816000830188612989565b61388e6020830187612989565b61389b6040830186612989565b6138a860608301856128cb565b6138b560808301846129e0565b9695505050505050565b7f4e487b7100000000000000000000000000000000000000000000000000000000600052601260045260246000fd5b60006138f98261281f565b91506139048361281f565b925082613914576139136138bf565b5b828204905092915050565b600060408201905061393460008301856128cb565b61394160208301846128cb565b9392505050565b600060808201905061395d6000830187612989565b61396a6020830186612955565b6139776040830185612989565b6139846060830184612989565b95945050505050565b7f4e487b7100000000000000000000000000000000000000000000000000000000600052602160045260246000fd5b7f45434453413a20696e76616c6964207369676e61747572650000000000000000600082015250565b60006139f2601883612715565b91506139fd826139bc565b602082019050919050565b60006020820190508181036000830152613a21816139e5565b9050919050565b7f45434453413a20696e76616c6964207369676e6174757265206c656e67746800600082015250565b6000613a5e601f83612715565b9150613a6982613a28565b602082019050919050565b60006020820190508181036000830152613a8d81613a51565b9050919050565b7f45434453413a20696e76616c6964207369676e6174757265202773272076616c60008201527f7565000000000000000000000000000000000000000000000000000000000000602082015250565b6000613af0602283612715565b9150613afb82613a94565b604082019050919050565b60006020820190508181036000830152613b1f81613ae3565b9050919050565b7f53616665436173743a2076616c756520646f65736e27742066697420696e203260008201527f3234206269747300000000000000000000000000000000000000000000000000602082015250565b6000613b82602783612715565b9150613b8d82613b26565b604082019050919050565b60006020820190508181036000830152613bb181613b75565b905091905056fea2646970667358221220aba39c9a476c5b9c3ac1f51d8e974f40374013d0af86929ff7a7ed79ad714b6964736f6c63430008130033",
  "linkReferences": {},
  "deployedLinkReferences": {}
}