{
  "_format": "hh-sol-artifact-1",
  "contractName": "GovernorContract",
  "sourceName": "contracts/standard_contracts/GovernorContract.sol",
  "abi": [
    {
      "inputs": [
        {
          "internalType": "contract IVotes",
          "name": "_token",
          "type": "address"
        },
        {
          "internalType": "contract TimelockController",
          "name": "_timelock",
          "type": "address"
        },
        {
          "internalType": "uint256",
          "name": "_votingDelay",
          "type": "uint256"
        },
        {
          "internalType": "uint256",
          "name": "_votingPeriod",
          "type": "uint256"
        },
        {
          "internalType": "uint256",
          "name": "_quorumPercentage",
          "type": "uint256"
        }
      ],
      "stateMutability": "nonpayable",
      "type": "constructor"
    },
    {
      "inputs": [],
      "name": "Empty",
      "type": "error"
    },
    {
      "inputs": [],
      "name": "InvalidShortString",
      "type": "error"
    },
    {
      "inputs": [
        {
          "internalType": "string",
          "name": "str",
          "type": "string"
        }
      ],
      "name": "StringTooLong",
      "type": "error"
    },
    {
      "anonymous": false,
      "inputs": [],
      "name": "EIP712DomainChanged",
      "type": "event"
    },
    {
      "anonymous": false,
      "inputs": [
        {
          "indexed": false,
          "internalType": "uint256",
          "name": "proposalId",
          "type": "uint256"
        }
      ],
      "name": "ProposalCanceled",
      "type": "event"
    },
    {
      "anonymous": false,
      "inputs": [
        {
          "indexed": false,
          "internalType": "uint256",
          "name": "proposalId",
          "type": "uint256"
        },
        {
          "indexed": false,
          "internalType": "address",
          "name": "proposer",
          "type": "address"
        },
        {
          "indexed": false,
          "internalType": "address[]",
          "name": "targets",
          "type": "address[]"
        },
        {
          "indexed": false,
          "internalType": "uint256[]",
          "name": "values",
          "type": "uint256[]"
        },
        {
          "indexed": false,
          "internalType": "string[]",
          "name": "signatures",
          "type": "string[]"
        },
        {
          "indexed": false,
          "internalType": "bytes[]",
          "name": "calldatas",
          "type": "bytes[]"
        },
        {
          "indexed": false,
          "internalType": "uint256",
          "name": "voteStart",
          "type": "uint256"
        },
        {
          "indexed": false,
          "internalType": "uint256",
          "name": "voteEnd",
          "type": "uint256"
        },
        {
          "indexed": false,
          "internalType": "string",
          "name": "description",
          "type": "string"
        }
      ],
      "name": "ProposalCreated",
      "type": "event"
    },
    {
      "anonymous": false,
      "inputs": [
        {
          "indexed": false,
          "internalType": "uint256",
          "name": "proposalId",
          "type": "uint256"
        }
      ],
      "name": "ProposalExecuted",
      "type": "event"
    },
    {
      "anonymous": false,
      "inputs": [
        {
          "indexed": false,
          "internalType": "uint256",
          "name": "proposalId",
          "type": "uint256"
        },
        {
          "indexed": false,
          "internalType": "uint256",
          "name": "eta",
          "type": "uint256"
        }
      ],
      "name": "ProposalQueued",
      "type": "event"
    },
    {
      "anonymous": false,
      "inputs": [
        {
          "indexed": false,
          "internalType": "uint256",
          "name": "oldProposalThreshold",
          "type": "uint256"
        },
        {
          "indexed": false,
          "internalType": "uint256",
          "name": "newProposalThreshold",
          "type": "uint256"
        }
      ],
      "name": "ProposalThresholdSet",
      "type": "event"
    },
    {
      "anonymous": false,
      "inputs": [
        {
          "indexed": false,
          "internalType": "uint256",
          "name": "oldQuorumNumerator",
          "type": "uint256"
        },
        {
          "indexed": false,
          "internalType": "uint256",
          "name": "newQuorumNumerator",
          "type": "uint256"
        }
      ],
      "name": "QuorumNumeratorUpdated",
      "type": "event"
    },
    {
      "anonymous": false,
      "inputs": [
        {
          "indexed": false,
          "internalType": "address",
          "name": "oldTimelock",
          "type": "address"
        },
        {
          "indexed": false,
          "internalType": "address",
          "name": "newTimelock",
          "type": "address"
        }
      ],
      "name": "TimelockChange",
      "type": "event"
    },
    {
      "anonymous": false,
      "inputs": [
        {
          "indexed": true,
          "internalType": "address",
          "name": "voter",
          "type": "address"
        },
        {
          "indexed": false,
          "internalType": "uint256",
          "name": "proposalId",
          "type": "uint256"
        },
        {
          "indexed": false,
          "internalType": "uint8",
          "name": "support",
          "type": "uint8"
        },
        {
          "indexed": false,
          "internalType": "uint256",
          "name": "weight",
          "type": "uint256"
        },
        {
          "indexed": false,
          "internalType": "string",
          "name": "reason",
          "type": "string"
        }
      ],
      "name": "VoteCast",
      "type": "event"
    },
    {
      "anonymous": false,
      "inputs": [
        {
          "indexed": true,
          "internalType": "address",
          "name": "voter",
          "type": "address"
        },
        {
          "indexed": false,
          "internalType": "uint256",
          "name": "proposalId",
          "type": "uint256"
        },
        {
          "indexed": false,
          "internalType": "uint8",
          "name": "support",
          "type": "uint8"
        },
        {
          "indexed": false,
          "internalType": "uint256",
          "name": "weight",
          "type": "uint256"
        },
        {
          "indexed": false,
          "internalType": "string",
          "name": "reason",
          "type": "string"
        },
        {
          "indexed": false,
          "internalType": "bytes",
          "name": "params",
          "type": "bytes"
        }
      ],
      "name": "VoteCastWithParams",
      "type": "event"
    },
    {
      "anonymous": false,
      "inputs": [
        {
          "indexed": false,
          "internalType": "uint256",
          "name": "oldVotingDelay",
          "type": "uint256"
        },
        {
          "indexed": false,
          "internalType": "uint256",
          "name": "newVotingDelay",
          "type": "uint256"
        }
      ],
      "name": "VotingDelaySet",
      "type": "event"
    },
    {
      "anonymous": false,
      "inputs": [
        {
          "indexed": false,
          "internalType": "uint256",
          "name": "oldVotingPeriod",
          "type": "uint256"
        },
        {
          "indexed": false,
          "internalType": "uint256",
          "name": "newVotingPeriod",
          "type": "uint256"
        }
      ],
      "name": "VotingPeriodSet",
      "type": "event"
    },
    {
      "inputs": [],
      "name": "BALLOT_TYPEHASH",
      "outputs": [
        {
          "internalType": "bytes32",
          "name": "",
          "type": "bytes32"
        }
      ],
      "stateMutability": "view",
      "type": "function"
    },
    {
      "inputs": [],
      "name": "CLOCK_MODE",
      "outputs": [
        {
          "internalType": "string",
          "name": "",
          "type": "string"
        }
      ],
      "stateMutability": "view",
      "type": "function"
    },
    {
      "inputs": [],
      "name": "COUNTING_MODE",
      "outputs": [
        {
          "internalType": "string",
          "name": "",
          "type": "string"
        }
      ],
      "stateMutability": "pure",
      "type": "function"
    },
    {
      "inputs": [],
      "name": "EXTENDED_BALLOT_TYPEHASH",
      "outputs": [
        {
          "internalType": "bytes32",
          "name": "",
          "type": "bytes32"
        }
      ],
      "stateMutability": "view",
      "type": "function"
    },
    {
      "inputs": [
        {
          "internalType": "address[]",
          "name": "targets",
          "type": "address[]"
        },
        {
          "internalType": "uint256[]",
          "name": "values",
          "type": "uint256[]"
        },
        {
          "internalType": "bytes[]",
          "name": "calldatas",
          "type": "bytes[]"
        },
        {
          "internalType": "bytes32",
          "name": "descriptionHash",
          "type": "bytes32"
        }
      ],
      "name": "cancel",
      "outputs": [
        {
          "internalType": "uint256",
          "name": "",
          "type": "uint256"
        }
      ],
      "stateMutability": "nonpayable",
      "type": "function"
    },
    {
      "inputs": [
        {
          "internalType": "uint256",
          "name": "proposalId",
          "type": "uint256"
        },
        {
          "internalType": "uint8",
          "name": "support",
          "type": "uint8"
        }
      ],
      "name": "castVote",
      "outputs": [
        {
          "internalType": "uint256",
          "name": "",
          "type": "uint256"
        }
      ],
      "stateMutability": "nonpayable",
      "type": "function"
    },
    {
      "inputs": [
        {
          "internalType": "uint256",
          "name": "proposalId",
          "type": "uint256"
        },
        {
          "internalType": "uint8",
          "name": "support",
          "type": "uint8"
        },
        {
          "internalType": "uint8",
          "name": "v",
          "type": "uint8"
        },
        {
          "internalType": "bytes32",
          "name": "r",
          "type": "bytes32"
        },
        {
          "internalType": "bytes32",
          "name": "s",
          "type": "bytes32"
        }
      ],
      "name": "castVoteBySig",
      "outputs": [
        {
          "internalType": "uint256",
          "name": "",
          "type": "uint256"
        }
      ],
      "stateMutability": "nonpayable",
      "type": "function"
    },
    {
      "inputs": [
        {
          "internalType": "uint256",
          "name": "proposalId",
          "type": "uint256"
        },
        {
          "internalType": "uint8",
          "name": "support",
          "type": "uint8"
        },
        {
          "internalType": "string",
          "name": "reason",
          "type": "string"
        }
      ],
      "name": "castVoteWithReason",
      "outputs": [
        {
          "internalType": "uint256",
          "name": "",
          "type": "uint256"
        }
      ],
      "stateMutability": "nonpayable",
      "type": "function"
    },
    {
      "inputs": [
        {
          "internalType": "uint256",
          "name": "proposalId",
          "type": "uint256"
        },
        {
          "internalType": "uint8",
          "name": "support",
          "type": "uint8"
        },
        {
          "internalType": "string",
          "name": "reason",
          "type": "string"
        },
        {
          "internalType": "bytes",
          "name": "params",
          "type": "bytes"
        }
      ],
      "name": "castVoteWithReasonAndParams",
      "outputs": [
        {
          "internalType": "uint256",
          "name": "",
          "type": "uint256"
        }
      ],
      "stateMutability": "nonpayable",
      "type": "function"
    },
    {
      "inputs": [
        {
          "internalType": "uint256",
          "name": "proposalId",
          "type": "uint256"
        },
        {
          "internalType": "uint8",
          "name": "support",
          "type": "uint8"
        },
        {
          "internalType": "string",
          "name": "reason",
          "type": "string"
        },
        {
          "internalType": "bytes",
          "name": "params",
          "type": "bytes"
        },
        {
          "internalType": "uint8",
          "name": "v",
          "type": "uint8"
        },
        {
          "internalType": "bytes32",
          "name": "r",
          "type": "bytes32"
        },
        {
          "internalType": "bytes32",
          "name": "s",
          "type": "bytes32"
        }
      ],
      "name": "castVoteWithReasonAndParamsBySig",
      "outputs": [
        {
          "internalType": "uint256",
          "name": "",
          "type": "uint256"
        }
      ],
      "stateMutability": "nonpayable",
      "type": "function"
    },
    {
      "inputs": [],
      "name": "clock",
      "outputs": [
        {
          "internalType": "uint48",
          "name": "",
          "type": "uint48"
        }
      ],
      "stateMutability": "view",
      "type": "function"
    },
    {
      "inputs": [],
      "name": "eip712Domain",
      "outputs": [
        {
          "internalType": "bytes1",
          "name": "fields",
          "type": "bytes1"
        },
        {
          "internalType": "string",
          "name": "name",
          "type": "string"
        },
        {
          "internalType": "string",
          "name": "version",
          "type": "string"
        },
        {
          "internalType": "uint256",
          "name": "chainId",
          "type": "uint256"
        },
        {
          "internalType": "address",
          "name": "verifyingContract",
          "type": "address"
        },
        {
          "internalType": "bytes32",
          "name": "salt",
          "type": "bytes32"
        },
        {
          "internalType": "uint256[]",
          "name": "extensions",
          "type": "uint256[]"
        }
      ],
      "stateMutability": "view",
      "type": "function"
    },
    {
      "inputs": [
        {
          "internalType": "address[]",
          "name": "targets",
          "type": "address[]"
        },
        {
          "internalType": "uint256[]",
          "name": "values",
          "type": "uint256[]"
        },
        {
          "internalType": "bytes[]",
          "name": "calldatas",
          "type": "bytes[]"
        },
        {
          "internalType": "bytes32",
          "name": "descriptionHash",
          "type": "bytes32"
        }
      ],
      "name": "execute",
      "outputs": [
        {
          "internalType": "uint256",
          "name": "",
          "type": "uint256"
        }
      ],
      "stateMutability": "payable",
      "type": "function"
    },
    {
      "inputs": [
        {
          "internalType": "address",
          "name": "account",
          "type": "address"
        },
        {
          "internalType": "uint256",
          "name": "timepoint",
          "type": "uint256"
        }
      ],
      "name": "getVotes",
      "outputs": [
        {
          "internalType": "uint256",
          "name": "",
          "type": "uint256"
        }
      ],
      "stateMutability": "view",
      "type": "function"
    },
    {
      "inputs": [
        {
          "internalType": "address",
          "name": "account",
          "type": "address"
        },
        {
          "internalType": "uint256",
          "name": "timepoint",
          "type": "uint256"
        },
        {
          "internalType": "bytes",
          "name": "params",
          "type": "bytes"
        }
      ],
      "name": "getVotesWithParams",
      "outputs": [
        {
          "internalType": "uint256",
          "name": "",
          "type": "uint256"
        }
      ],
      "stateMutability": "view",
      "type": "function"
    },
    {
      "inputs": [
        {
          "internalType": "uint256",
          "name": "proposalId",
          "type": "uint256"
        },
        {
          "internalType": "address",
          "name": "account",
          "type": "address"
        }
      ],
      "name": "hasVoted",
      "outputs": [
        {
          "internalType": "bool",
          "name": "",
          "type": "bool"
        }
      ],
      "stateMutability": "view",
      "type": "function"
    },
    {
      "inputs": [
        {
          "internalType": "address[]",
          "name": "targets",
          "type": "address[]"
        },
        {
          "internalType": "uint256[]",
          "name": "values",
          "type": "uint256[]"
        },
        {
          "internalType": "bytes[]",
          "name": "calldatas",
          "type": "bytes[]"
        },
        {
          "internalType": "bytes32",
          "name": "descriptionHash",
          "type": "bytes32"
        }
      ],
      "name": "hashProposal",
      "outputs": [
        {
          "internalType": "uint256",
          "name": "",
          "type": "uint256"
        }
      ],
      "stateMutability": "pure",
      "type": "function"
    },
    {
      "inputs": [],
      "name": "name",
      "outputs": [
        {
          "internalType": "string",
          "name": "",
          "type": "string"
        }
      ],
      "stateMutability": "view",
      "type": "function"
    },
    {
      "inputs": [
        {
          "internalType": "address",
          "name": "",
          "type": "address"
        },
        {
          "internalType": "address",
          "name": "",
          "type": "address"
        },
        {
          "internalType": "uint256[]",
          "name": "",
          "type": "uint256[]"
        },
        {
          "internalType": "uint256[]",
          "name": "",
          "type": "uint256[]"
        },
        {
          "internalType": "bytes",
          "name": "",
          "type": "bytes"
        }
      ],
      "name": "onERC1155BatchReceived",
      "outputs": [
        {
          "internalType": "bytes4",
          "name": "",
          "type": "bytes4"
        }
      ],
      "stateMutability": "nonpayable",
      "type": "function"
    },
    {
      "inputs": [
        {
          "internalType": "address",
          "name": "",
          "type": "address"
        },
        {
          "internalType": "address",
          "name": "",
          "type": "address"
        },
        {
          "internalType": "uint256",
          "name": "",
          "type": "uint256"
        },
        {
          "internalType": "uint256",
          "name": "",
          "type": "uint256"
        },
        {
          "internalType": "bytes",
          "name": "",
          "type": "bytes"
        }
      ],
      "name": "onERC1155Received",
      "outputs": [
        {
          "internalType": "bytes4",
          "name": "",
          "type": "bytes4"
        }
      ],
      "stateMutability": "nonpayable",
      "type": "function"
    },
    {
      "inputs": [
        {
          "internalType": "address",
          "name": "",
          "type": "address"
        },
        {
          "internalType": "address",
          "name": "",
          "type": "address"
        },
        {
          "internalType": "uint256",
          "name": "",
          "type": "uint256"
        },
        {
          "internalType": "bytes",
          "name": "",
          "type": "bytes"
        }
      ],
      "name": "onERC721Received",
      "outputs": [
        {
          "internalType": "bytes4",
          "name": "",
          "type": "bytes4"
        }
      ],
      "stateMutability": "nonpayable",
      "type": "function"
    },
    {
      "inputs": [
        {
          "internalType": "uint256",
          "name": "proposalId",
          "type": "uint256"
        }
      ],
      "name": "proposalDeadline",
      "outputs": [
        {
          "internalType": "uint256",
          "name": "",
          "type": "uint256"
        }
      ],
      "stateMutability": "view",
      "type": "function"
    },
    {
      "inputs": [
        {
          "internalType": "uint256",
          "name": "proposalId",
          "type": "uint256"
        }
      ],
      "name": "proposalEta",
      "outputs": [
        {
          "internalType": "uint256",
          "name": "",
          "type": "uint256"
        }
      ],
      "stateMutability": "view",
      "type": "function"
    },
    {
      "inputs": [
        {
          "internalType": "uint256",
          "name": "proposalId",
          "type": "uint256"
        }
      ],
      "name": "proposalProposer",
      "outputs": [
        {
          "internalType": "address",
          "name": "",
          "type": "address"
        }
      ],
      "stateMutability": "view",
      "type": "function"
    },
    {
      "inputs": [
        {
          "internalType": "uint256",
          "name": "proposalId",
          "type": "uint256"
        }
      ],
      "name": "proposalSnapshot",
      "outputs": [
        {
          "internalType": "uint256",
          "name": "",
          "type": "uint256"
        }
      ],
      "stateMutability": "view",
      "type": "function"
    },
    {
      "inputs": [],
      "name": "proposalThreshold",
      "outputs": [
        {
          "internalType": "uint256",
          "name": "",
          "type": "uint256"
        }
      ],
      "stateMutability": "view",
      "type": "function"
    },
    {
      "inputs": [
        {
          "internalType": "uint256",
          "name": "proposalId",
          "type": "uint256"
        }
      ],
      "name": "proposalVotes",
      "outputs": [
        {
          "internalType": "uint256",
          "name": "againstVotes",
          "type": "uint256"
        },
        {
          "internalType": "uint256",
          "name": "forVotes",
          "type": "uint256"
        },
        {
          "internalType": "uint256",
          "name": "abstainVotes",
          "type": "uint256"
        }
      ],
      "stateMutability": "view",
      "type": "function"
    },
    {
      "inputs": [
        {
          "internalType": "address[]",
          "name": "targets",
          "type": "address[]"
        },
        {
          "internalType": "uint256[]",
          "name": "values",
          "type": "uint256[]"
        },
        {
          "internalType": "bytes[]",
          "name": "calldatas",
          "type": "bytes[]"
        },
        {
          "internalType": "string",
          "name": "description",
          "type": "string"
        }
      ],
      "name": "propose",
      "outputs": [
        {
          "internalType": "uint256",
          "name": "",
          "type": "uint256"
        }
      ],
      "stateMutability": "nonpayable",
      "type": "function"
    },
    {
      "inputs": [
        {
          "internalType": "address[]",
          "name": "targets",
          "type": "address[]"
        },
        {
          "internalType": "uint256[]",
          "name": "values",
          "type": "uint256[]"
        },
        {
          "internalType": "bytes[]",
          "name": "calldatas",
          "type": "bytes[]"
        },
        {
          "internalType": "bytes32",
          "name": "descriptionHash",
          "type": "bytes32"
        }
      ],
      "name": "queue",
      "outputs": [
        {
          "internalType": "uint256",
          "name": "",
          "type": "uint256"
        }
      ],
      "stateMutability": "nonpayable",
      "type": "function"
    },
    {
      "inputs": [
        {
          "internalType": "uint256",
          "name": "blockNumber",
          "type": "uint256"
        }
      ],
      "name": "quorum",
      "outputs": [
        {
          "internalType": "uint256",
          "name": "",
          "type": "uint256"
        }
      ],
      "stateMutability": "view",
      "type": "function"
    },
    {
      "inputs": [],
      "name": "quorumDenominator",
      "outputs": [
        {
          "internalType": "uint256",
          "name": "",
          "type": "uint256"
        }
      ],
      "stateMutability": "view",
      "type": "function"
    },
    {
      "inputs": [
        {
          "internalType": "uint256",
          "name": "timepoint",
          "type": "uint256"
        }
      ],
      "name": "quorumNumerator",
      "outputs": [
        {
          "internalType": "uint256",
          "name": "",
          "type": "uint256"
        }
      ],
      "stateMutability": "view",
      "type": "function"
    },
    {
      "inputs": [],
      "name": "quorumNumerator",
      "outputs": [
        {
          "internalType": "uint256",
          "name": "",
          "type": "uint256"
        }
      ],
      "stateMutability": "view",
      "type": "function"
    },
    {
      "inputs": [
        {
          "internalType": "address",
          "name": "target",
          "type": "address"
        },
        {
          "internalType": "uint256",
          "name": "value",
          "type": "uint256"
        },
        {
          "internalType": "bytes",
          "name": "data",
          "type": "bytes"
        }
      ],
      "name": "relay",
      "outputs": [],
      "stateMutability": "payable",
      "type": "function"
    },
    {
      "inputs": [
        {
          "internalType": "uint256",
          "name": "newProposalThreshold",
          "type": "uint256"
        }
      ],
      "name": "setProposalThreshold",
      "outputs": [],
      "stateMutability": "nonpayable",
      "type": "function"
    },
    {
      "inputs": [
        {
          "internalType": "uint256",
          "name": "newVotingDelay",
          "type": "uint256"
        }
      ],
      "name": "setVotingDelay",
      "outputs": [],
      "stateMutability": "nonpayable",
      "type": "function"
    },
    {
      "inputs": [
        {
          "internalType": "uint256",
          "name": "newVotingPeriod",
          "type": "uint256"
        }
      ],
      "name": "setVotingPeriod",
      "outputs": [],
      "stateMutability": "nonpayable",
      "type": "function"
    },
    {
      "inputs": [
        {
          "internalType": "uint256",
          "name": "proposalId",
          "type": "uint256"
        }
      ],
      "name": "state",
      "outputs": [
        {
          "internalType": "enum IGovernor.ProposalState",
          "name": "",
          "type": "uint8"
        }
      ],
      "stateMutability": "view",
      "type": "function"
    },
    {
      "inputs": [
        {
          "internalType": "bytes4",
          "name": "interfaceId",
          "type": "bytes4"
        }
      ],
      "name": "supportsInterface",
      "outputs": [
        {
          "internalType": "bool",
          "name": "",
          "type": "bool"
        }
      ],
      "stateMutability": "view",
      "type": "function"
    },
    {
      "inputs": [],
      "name": "timelock",
      "outputs": [
        {
          "internalType": "address",
          "name": "",
          "type": "address"
        }
      ],
      "stateMutability": "view",
      "type": "function"
    },
    {
      "inputs": [],
      "name": "token",
      "outputs": [
        {
          "internalType": "contract IERC5805",
          "name": "",
          "type": "address"
        }
      ],
      "stateMutability": "view",
      "type": "function"
    },
    {
      "inputs": [
        {
          "internalType": "uint256",
          "name": "newQuorumNumerator",
          "type": "uint256"
        }
      ],
      "name": "updateQuorumNumerator",
      "outputs": [],
      "stateMutability": "nonpayable",
      "type": "function"
    },
    {
      "inputs": [
        {
          "internalType": "contract TimelockController",
          "name": "newTimelock",
          "type": "address"
        }
      ],
      "name": "updateTimelock",
      "outputs": [],
      "stateMutability": "nonpayable",
      "type": "function"
    },
    {
      "inputs": [],
      "name": "version",
      "outputs": [
        {
          "internalType": "string",
          "name": "",
          "type": "string"
        }
      ],
      "stateMutability": "view",
      "type": "function"
    },
    {
      "inputs": [],
      "name": "votingDelay",
      "outputs": [
        {
          "internalType": "uint256",
          "name": "",
          "type": "uint256"
        }
      ],
      "stateMutability": "view",
      "type": "function"
    },
    {
      "inputs": [],
      "name": "votingPeriod",
      "outputs": [
        {
          "internalType": "uint256",
          "name": "",
          "type": "uint256"
        }
      ],
      "stateMutability": "view",
      "type": "function"
    },
    {
      "stateMutability": "payable",
      "type": "receive"
    }
  ],
  "bytecode": "0x6101806040523480156200001257600080fd5b50604051620095d0380380620095d0833981810160405281019062000038919062000e86565b838186858560006040518060400160405280601081526020017f476f7665726e6f72436f6e7472616374000000000000000000000000000000008152508062000086620001e460201b60201c565b6200009c6000836200022160201b90919060201c565b6101208181525050620000ba6001826200022160201b90919060201c565b6101408181525050818051906020012060e08181525050808051906020012061010081815250504660a08181525050620000f96200027960201b60201c565b608081815250503073ffffffffffffffffffffffffffffffffffffffff1660c08173ffffffffffffffffffffffffffffffffffffffff1681525050505080600290816200014791906200117e565b50506200015a83620002d660201b60201c565b6200016b826200031d60201b60201c565b6200017c81620003aa60201b60201c565b5050508073ffffffffffffffffffffffffffffffffffffffff166101608173ffffffffffffffffffffffffffffffffffffffff168152505050620001c681620003f160201b60201c565b50620001d881620005ff60201b60201c565b5050505050506200191d565b60606040518060400160405280600181526020017f3100000000000000000000000000000000000000000000000000000000000000815250905090565b600060208351101562000247576200023f83620006a060201b60201c565b905062000273565b8262000259836200070d60201b60201c565b60000190816200026a91906200117e565b5060ff60001b90505b92915050565b60007f8b73c3c69bb8fe3d512ecc4cf759cc79239f7b179b0ffacaa9a75d522b39400f60e051610100514630604051602001620002bb959493929190620012a2565b60405160208183030381529060405280519060200120905090565b7fc565b045403dc03c2eea82b81a0465edad9e2e7fc4d97e11421c209da93d7a93600654826040516200030b929190620012ff565b60405180910390a18060068190555050565b6000811162000363576040517f08c379a00000000000000000000000000000000000000000000000000000000081526004016200035a90620013b3565b60405180910390fd5b7f7e3f7f0708a84de9203036abaa450dccc85ad5ff52f78c170f3edb55cf5e88286007548260405162000398929190620012ff565b60405180910390a18060078190555050565b7fccb45da8d5717e6c4544694297c4ba5cf151d455c9bb0ed4fc7a38411bc0546160085482604051620003df929190620012ff565b60405180910390a18060088190555050565b620004016200071760201b60201c565b81111562000446576040517f08c379a00000000000000000000000000000000000000000000000000000000081526004016200043d9062001471565b60405180910390fd5b6000620004586200072060201b60201c565b9050600081141580156200047457506000600b60000180549050145b156200056f57600b6000016040518060400160405280600063ffffffff168152602001620004a8846200077160201b60201c565b7bffffffffffffffffffffffffffffffffffffffffffffffffffffffff168152509080600181540180825580915050600190039060005260206000200160009091909190915060008201518160000160006101000a81548163ffffffff021916908363ffffffff16021790555060208201518160000160046101000a8154817bffffffffffffffffffffffffffffffffffffffffffffffffffffffff02191690837bffffffffffffffffffffffffffffffffffffffffffffffffffffffff16021790555050505b620005be6200059b62000587620007df60201b60201c565b65ffffffffffff166200087560201b60201c565b620005ac846200077160201b60201c565b600b620008cb60201b9092919060201c565b50507f0553476bf02ef2726e8ce5ced78d63e26e602e4a2257b1f559418e24b46339978183604051620005f3929190620012ff565b60405180910390a15050565b7f08f74ea46ef7894f65eabfb5e6e695de773a000b47c529ab559178069b226401600c60009054906101000a900473ffffffffffffffffffffffffffffffffffffffff16826040516200065492919062001493565b60405180910390a180600c60006101000a81548173ffffffffffffffffffffffffffffffffffffffff021916908373ffffffffffffffffffffffffffffffffffffffff16021790555050565b600080829050601f81511115620006f057826040517f305a27a9000000000000000000000000000000000000000000000000000000008152600401620006e791906200153e565b60405180910390fd5b805181620006fe9062001594565b60001c1760001b915050919050565b6000819050919050565b60006064905090565b600080600b6000018054905014620007685762000744600b620008f060201b60201c565b7bffffffffffffffffffffffffffffffffffffffffffffffffffffffff166200076c565b600a545b905090565b60007bffffffffffffffffffffffffffffffffffffffffffffffffffffffff8016821115620007d7576040517f08c379a0000000000000000000000000000000000000000000000000000000008152600401620007ce906200167a565b60405180910390fd5b819050919050565b60006101605173ffffffffffffffffffffffffffffffffffffffff166391ddadf46040518163ffffffff1660e01b8152600401602060405180830381865afa9250505080156200084f57506040513d601f19601f820116820180604052508101906200084c9190620016df565b60015b6200086d5762000865436200096660201b60201c565b905062000872565b809150505b90565b600063ffffffff8016821115620008c3576040517f08c379a0000000000000000000000000000000000000000000000000000000008152600401620008ba9062001787565b60405180910390fd5b819050919050565b600080620008e4856000018585620009be60201b60201c565b91509150935093915050565b60008082600001805490509050600081146200095b5762000929836000016001836200091d9190620017d8565b62000d5f60201b60201c565b60000160049054906101000a90047bffffffffffffffffffffffffffffffffffffffffffffffffffffffff166200095e565b60005b915050919050565b600065ffffffffffff8016821115620009b6576040517f08c379a0000000000000000000000000000000000000000000000000000000008152600401620009ad9062001889565b60405180910390fd5b819050919050565b600080600085805490509050600081111562000c6f576000620009f687600184620009ea9190620017d8565b62000d5f60201b60201c565b6040518060400160405290816000820160009054906101000a900463ffffffff1663ffffffff1663ffffffff1681526020016000820160049054906101000a90047bffffffffffffffffffffffffffffffffffffffffffffffffffffffff167bffffffffffffffffffffffffffffffffffffffffffffffffffffffff167bffffffffffffffffffffffffffffffffffffffffffffffffffffffff168152505090508563ffffffff16816000015163ffffffff16111562000aed576040517f08c379a000000000000000000000000000000000000000000000000000000000815260040162000ae490620018fb565b60405180910390fd5b8563ffffffff16816000015163ffffffff160362000b7d578462000b268860018562000b1a9190620017d8565b62000d5f60201b60201c565b60000160046101000a8154817bffffffffffffffffffffffffffffffffffffffffffffffffffffffff02191690837bffffffffffffffffffffffffffffffffffffffffffffffffffffffff16021790555062000c5d565b8660405180604001604052808863ffffffff168152602001877bffffffffffffffffffffffffffffffffffffffffffffffffffffffff168152509080600181540180825580915050600190039060005260206000200160009091909190915060008201518160000160006101000a81548163ffffffff021916908363ffffffff16021790555060208201518160000160046101000a8154817bffffffffffffffffffffffffffffffffffffffffffffffffffffffff02191690837bffffffffffffffffffffffffffffffffffffffffffffffffffffffff16021790555050505b80602001518593509350505062000d57565b8560405180604001604052808763ffffffff168152602001867bffffffffffffffffffffffffffffffffffffffffffffffffffffffff168152509080600181540180825580915050600190039060005260206000200160009091909190915060008201518160000160006101000a81548163ffffffff021916908363ffffffff16021790555060208201518160000160046101000a8154817bffffffffffffffffffffffffffffffffffffffffffffffffffffffff02191690837bffffffffffffffffffffffffffffffffffffffffffffffffffffffff160217905550505060008492509250505b935093915050565b60008260005281602060002001905092915050565b600080fd5b600073ffffffffffffffffffffffffffffffffffffffff82169050919050565b600062000da68262000d79565b9050919050565b600062000dba8262000d99565b9050919050565b62000dcc8162000dad565b811462000dd857600080fd5b50565b60008151905062000dec8162000dc1565b92915050565b600062000dff8262000d79565b9050919050565b600062000e138262000df2565b9050919050565b62000e258162000e06565b811462000e3157600080fd5b50565b60008151905062000e458162000e1a565b92915050565b6000819050919050565b62000e608162000e4b565b811462000e6c57600080fd5b50565b60008151905062000e808162000e55565b92915050565b600080600080600060a0868803121562000ea55762000ea462000d74565b5b600062000eb58882890162000ddb565b955050602062000ec88882890162000e34565b945050604062000edb8882890162000e6f565b935050606062000eee8882890162000e6f565b925050608062000f018882890162000e6f565b9150509295509295909350565b600081519050919050565b7f4e487b7100000000000000000000000000000000000000000000000000000000600052604160045260246000fd5b7f4e487b7100000000000000000000000000000000000000000000000000000000600052602260045260246000fd5b6000600282049050600182168062000f9057607f821691505b60208210810362000fa65762000fa562000f48565b5b50919050565b60008190508160005260206000209050919050565b60006020601f8301049050919050565b600082821b905092915050565b600060088302620010107fffffffffffffffffffffffffffffffffffffffffffffffffffffffffffffffff8262000fd1565b6200101c868362000fd1565b95508019841693508086168417925050509392505050565b6000819050919050565b60006200105f62001059620010538462000e4b565b62001034565b62000e4b565b9050919050565b6000819050919050565b6200107b836200103e565b620010936200108a8262001066565b84845462000fde565b825550505050565b600090565b620010aa6200109b565b620010b781848462001070565b505050565b5b81811015620010df57620010d3600082620010a0565b600181019050620010bd565b5050565b601f8211156200112e57620010f88162000fac565b620011038462000fc1565b8101602085101562001113578190505b6200112b620011228562000fc1565b830182620010bc565b50505b505050565b600082821c905092915050565b6000620011536000198460080262001133565b1980831691505092915050565b60006200116e838362001140565b9150826002028217905092915050565b620011898262000f0e565b67ffffffffffffffff811115620011a557620011a462000f19565b5b620011b1825462000f77565b620011be828285620010e3565b600060209050601f831160018114620011f65760008415620011e1578287015190505b620011ed858262001160565b8655506200125d565b601f198416620012068662000fac565b60005b82811015620012305784890151825560018201915060208501945060208101905062001209565b868310156200125057848901516200124c601f89168262001140565b8355505b6001600288020188555050505b505050505050565b6000819050919050565b6200127a8162001265565b82525050565b6200128b8162000e4b565b82525050565b6200129c8162000d99565b82525050565b600060a082019050620012b960008301886200126f565b620012c860208301876200126f565b620012d760408301866200126f565b620012e6606083018562001280565b620012f5608083018462001291565b9695505050505050565b600060408201905062001316600083018562001280565b62001325602083018462001280565b9392505050565b600082825260208201905092915050565b7f476f7665726e6f7253657474696e67733a20766f74696e6720706572696f642060008201527f746f6f206c6f7700000000000000000000000000000000000000000000000000602082015250565b60006200139b6027836200132c565b9150620013a8826200133d565b604082019050919050565b60006020820190508181036000830152620013ce816200138c565b9050919050565b7f476f7665726e6f72566f74657351756f72756d4672616374696f6e3a2071756f60008201527f72756d4e756d657261746f72206f7665722071756f72756d44656e6f6d696e6160208201527f746f720000000000000000000000000000000000000000000000000000000000604082015250565b6000620014596043836200132c565b91506200146682620013d5565b606082019050919050565b600060208201905081810360008301526200148c816200144a565b9050919050565b6000604082019050620014aa600083018562001291565b620014b9602083018462001291565b9392505050565b60005b83811015620014e0578082015181840152602081019050620014c3565b60008484015250505050565b6000601f19601f8301169050919050565b60006200150a8262000f0e565b6200151681856200132c565b935062001528818560208601620014c0565b6200153381620014ec565b840191505092915050565b600060208201905081810360008301526200155a8184620014fd565b905092915050565b600081519050919050565b6000819050602082019050919050565b60006200158b825162001265565b80915050919050565b6000620015a18262001562565b82620015ad846200156d565b9050620015ba816200157d565b92506020821015620015fd57620015f87fffffffffffffffffffffffffffffffffffffffffffffffffffffffffffffffff8360200360080262000fd1565b831692505b5050919050565b7f53616665436173743a2076616c756520646f65736e27742066697420696e203260008201527f3234206269747300000000000000000000000000000000000000000000000000602082015250565b6000620016626027836200132c565b91506200166f8262001604565b604082019050919050565b60006020820190508181036000830152620016958162001653565b9050919050565b600065ffffffffffff82169050919050565b620016b9816200169c565b8114620016c557600080fd5b50565b600081519050620016d981620016ae565b92915050565b600060208284031215620016f857620016f762000d74565b5b60006200170884828501620016c8565b91505092915050565b7f53616665436173743a2076616c756520646f65736e27742066697420696e203360008201527f3220626974730000000000000000000000000000000000000000000000000000602082015250565b60006200176f6026836200132c565b91506200177c8262001711565b604082019050919050565b60006020820190508181036000830152620017a28162001760565b9050919050565b7f4e487b7100000000000000000000000000000000000000000000000000000000600052601160045260246000fd5b6000620017e58262000e4b565b9150620017f28362000e4b565b92508282039050818111156200180d576200180c620017a9565b5b92915050565b7f53616665436173743a2076616c756520646f65736e27742066697420696e203460008201527f3820626974730000000000000000000000000000000000000000000000000000602082015250565b6000620018716026836200132c565b91506200187e8262001813565b604082019050919050565b60006020820190508181036000830152620018a48162001862565b9050919050565b7f436865636b706f696e743a2064656372656173696e67206b6579730000000000600082015250565b6000620018e3601b836200132c565b9150620018f082620018ab565b602082019050919050565b600060208201905081810360008301526200191681620018d4565b9050919050565b60805160a05160c05160e05161010051610120516101405161016051617c316200199f6000396000818161161801528181611beb0152818161239c015281816133f301526136c401526000611b2c01526000611af8015260006147eb015260006147ca01526000613997015260006139ed01526000613a160152617c316000f3fe6080604052600436106102815760003560e01c80637b3c71d31161014f578063c01f9e37116100c1578063ea0217cf1161007a578063ea0217cf14610b2c578063eb9019d414610b55578063ece40cc114610b92578063f23a6e6114610bbb578063f8ce560a14610bf8578063fc0c546a14610c35576102fd565b8063c01f9e3714610a15578063c28bc2fa14610a52578063c59057e414610a6e578063d33219b414610aab578063dd4e2ba514610ad6578063deaaa7cc14610b01576102fd565b80639a802a6d116101135780639a802a6d146108df578063a7713a701461091c578063a890c91014610947578063ab58fb8e14610970578063b58131b0146109ad578063bc197c81146109d8576102fd565b80637b3c71d3146107de5780637d5e81e21461081b57806384b0196e1461085857806391ddadf41461088957806397c3d334146108b4576102fd565b80633932abb1116101f3578063544ffc9c116101ac578063544ffc9c1461069457806354fd4d50146106d357806356781388146106fe5780635f398a141461073b57806360c4247f1461077857806370b0f660146107b5576102fd565b80633932abb11461054a5780633bccf4fd146105755780633e4f49e6146105b257806343859632146105ef578063452115d61461062c5780634bf5d7e914610669576102fd565b8063143489d011610245578063143489d0146103fb578063150b7a0214610438578063160cbed7146104755780632656227d146104b25780632d63f693146104e25780632fe3e2611461051f576102fd565b806301ffc9a71461030257806302a251a31461033f578063034201811461036a57806306f3f9e6146103a757806306fdde03146103d0576102fd565b366102fd573073ffffffffffffffffffffffffffffffffffffffff166102a5610c60565b73ffffffffffffffffffffffffffffffffffffffff16146102fb576040517f08c379a00000000000000000000000000000000000000000000000000000000081526004016102f290614ff4565b60405180910390fd5b005b600080fd5b34801561030e57600080fd5b5061032960048036038101906103249190615080565b610c6f565b60405161033691906150c8565b60405180910390f35b34801561034b57600080fd5b50610354610c81565b60405161036191906150fc565b60405180910390f35b34801561037657600080fd5b50610391600480360381019061038c9190615358565b610c90565b60405161039e91906150fc565b60405180910390f35b3480156103b357600080fd5b506103ce60048036038101906103c99190615436565b610d75565b005b3480156103dc57600080fd5b506103e5610e6c565b6040516103f291906154d1565b60405180910390f35b34801561040757600080fd5b50610422600480360381019061041d9190615436565b610efe565b60405161042f9190615534565b60405180910390f35b34801561044457600080fd5b5061045f600480360381019061045a919061557b565b610f3e565b60405161046c919061560d565b60405180910390f35b34801561048157600080fd5b5061049c6004803603810190610497919061588f565b610f52565b6040516104a991906150fc565b60405180910390f35b6104cc60048036038101906104c7919061588f565b61120c565b6040516104d991906150fc565b60405180910390f35b3480156104ee57600080fd5b5061050960048036038101906105049190615436565b61135a565b60405161051691906150fc565b60405180910390f35b34801561052b57600080fd5b50610534611398565b6040516105419190615959565b60405180910390f35b34801561055657600080fd5b5061055f6113bc565b60405161056c91906150fc565b60405180910390f35b34801561058157600080fd5b5061059c60048036038101906105979190615974565b6113cb565b6040516105a991906150fc565b60405180910390f35b3480156105be57600080fd5b506105d960048036038101906105d49190615436565b611455565b6040516105e69190615a66565b60405180910390f35b3480156105fb57600080fd5b5061061660048036038101906106119190615a81565b611467565b60405161062391906150c8565b60405180910390f35b34801561063857600080fd5b50610653600480360381019061064e919061588f565b6114d2565b60405161066091906150fc565b60405180910390f35b34801561067557600080fd5b5061067e611614565b60405161068b91906154d1565b60405180910390f35b3480156106a057600080fd5b506106bb60048036038101906106b69190615436565b6116ec565b6040516106ca93929190615ac1565b60405180910390f35b3480156106df57600080fd5b506106e8611724565b6040516106f591906154d1565b60405180910390f35b34801561070a57600080fd5b5061072560048036038101906107209190615af8565b611761565b60405161073291906150fc565b60405180910390f35b34801561074757600080fd5b50610762600480360381019061075d9190615b38565b611792565b60405161076f91906150fc565b60405180910390f35b34801561078457600080fd5b5061079f600480360381019061079a9190615436565b6117fc565b6040516107ac91906150fc565b60405180910390f35b3480156107c157600080fd5b506107dc60048036038101906107d79190615436565b61196e565b005b3480156107ea57600080fd5b5061080560048036038101906108009190615bdc565b611a65565b60405161081291906150fc565b60405180910390f35b34801561082757600080fd5b50610842600480360381019061083d9190615cf1565b611acd565b60405161084f91906150fc565b60405180910390f35b34801561086457600080fd5b5061086d611ae5565b6040516108809796959493929190615ec1565b60405180910390f35b34801561089557600080fd5b5061089e611be7565b6040516108ab9190615f66565b60405180910390f35b3480156108c057600080fd5b506108c9611c8d565b6040516108d691906150fc565b60405180910390f35b3480156108eb57600080fd5b5061090660048036038101906109019190615f81565b611c96565b60405161091391906150fc565b60405180910390f35b34801561092857600080fd5b50610931611cac565b60405161093e91906150fc565b60405180910390f35b34801561095357600080fd5b5061096e60048036038101906109699190616040565b611cf3565b005b34801561097c57600080fd5b5061099760048036038101906109929190615436565b611dea565b6040516109a491906150fc565b60405180910390f35b3480156109b957600080fd5b506109c2611eb7565b6040516109cf91906150fc565b60405180910390f35b3480156109e457600080fd5b506109ff60048036038101906109fa919061606d565b611ec6565b604051610a0c919061560d565b60405180910390f35b348015610a2157600080fd5b50610a3c6004803603810190610a379190615436565b611edb565b604051610a4991906150fc565b60405180910390f35b610a6c6004803603810190610a679190616192565b611f19565b005b348015610a7a57600080fd5b50610a956004803603810190610a90919061588f565b6120a2565b604051610aa291906150fc565b60405180910390f35b348015610ab757600080fd5b50610ac06120de565b604051610acd9190615534565b60405180910390f35b348015610ae257600080fd5b50610aeb612108565b604051610af891906154d1565b60405180910390f35b348015610b0d57600080fd5b50610b16612145565b604051610b239190615959565b60405180910390f35b348015610b3857600080fd5b50610b536004803603810190610b4e9190615436565b612169565b005b348015610b6157600080fd5b50610b7c6004803603810190610b779190616206565b612260565b604051610b8991906150fc565b60405180910390f35b348015610b9e57600080fd5b50610bb96004803603810190610bb49190615436565b61227c565b005b348015610bc757600080fd5b50610be26004803603810190610bdd9190616246565b612373565b604051610bef919061560d565b60405180910390f35b348015610c0457600080fd5b50610c1f6004803603810190610c1a9190615436565b612388565b604051610c2c91906150fc565b60405180910390f35b348015610c4157600080fd5b50610c4a61239a565b604051610c57919061633c565b60405180910390f35b6000610c6a6123be565b905090565b6000610c7a826123e8565b9050919050565b6000610c8b612462565b905090565b600080610d13610d0b7fb3b3f3b703cd84ce352197dcff232b1b5d3cfb2025ce47cf04742d0651f1af888c8c8c8c604051610ccc929190616387565b60405180910390208b80519060200120604051602001610cf09594939291906163af565b6040516020818303038152906040528051906020012061246c565b868686612486565b9050610d668a828b8b8b8080601f016020809104026020016040519081016040528093929190818152602001838380828437600081840152601f19601f820116905080830192505050505050508a6124b1565b91505098975050505050505050565b610d7d610c60565b73ffffffffffffffffffffffffffffffffffffffff16610d9b61263d565b73ffffffffffffffffffffffffffffffffffffffff1614610df1576040517f08c379a0000000000000000000000000000000000000000000000000000000008152600401610de89061644e565b60405180910390fd5b3073ffffffffffffffffffffffffffffffffffffffff16610e10610c60565b73ffffffffffffffffffffffffffffffffffffffff1614610e60576000610e35612645565b604051610e43929190616387565b604051809103902090505b80610e596004612652565b03610e4e57505b610e698161272e565b50565b606060028054610e7b9061649d565b80601f0160208091040260200160405190810160405280929190818152602001828054610ea79061649d565b8015610ef45780601f10610ec957610100808354040283529160200191610ef4565b820191906000526020600020905b815481529060010190602001808311610ed757829003601f168201915b5050505050905090565b60006003600083815260200190815260200160002060000160089054906101000a900473ffffffffffffffffffffffffffffffffffffffff169050919050565b600063150b7a0260e01b9050949350505050565b600080610f61868686866120a2565b905060046007811115610f7757610f766159ef565b5b610f8082611455565b6007811115610f9257610f916159ef565b5b14610fd2576040517f08c379a0000000000000000000000000000000000000000000000000000000008152600401610fc990616540565b60405180910390fd5b6000600c60009054906101000a900473ffffffffffffffffffffffffffffffffffffffff1673ffffffffffffffffffffffffffffffffffffffff1663f27a0c926040518163ffffffff1660e01b8152600401602060405180830381865afa158015611041573d6000803e3d6000fd5b505050506040513d601f19601f820116820180604052508101906110659190616575565b9050600c60009054906101000a900473ffffffffffffffffffffffffffffffffffffffff1673ffffffffffffffffffffffffffffffffffffffff1663b1c5f4278888886000896040518663ffffffff1660e01b81526004016110cb9594939291906167bf565b602060405180830381865afa1580156110e8573d6000803e3d6000fd5b505050506040513d601f19601f8201168201806040525081019061110c919061683c565b600d600084815260200190815260200160002081905550600c60009054906101000a900473ffffffffffffffffffffffffffffffffffffffff1673ffffffffffffffffffffffffffffffffffffffff16638f2a0bb0888888600089876040518763ffffffff1660e01b815260040161118996959493929190616869565b600060405180830381600087803b1580156111a357600080fd5b505af11580156111b7573d6000803e3d6000fd5b505050507f9a2e42fd6722813d69113e7d0079d3d940171428df7373df9c7f7617cfda28928282426111e9919061690e565b6040516111f7929190616942565b60405180910390a18192505050949350505050565b60008061121b868686866120a2565b9050600061122882611455565b90506004600781111561123e5761123d6159ef565b5b816007811115611251576112506159ef565b5b148061128157506005600781111561126c5761126b6159ef565b5b81600781111561127f5761127e6159ef565b5b145b6112c0576040517f08c379a00000000000000000000000000000000000000000000000000000000081526004016112b790616540565b60405180910390fd5b60016003600084815260200190815260200160002060020160006101000a81548160ff0219169083151502179055507f712ae1383f79ac853f8d882153778e0260ef8f03b504e2866e0593e04d2b291f8260405161131e91906150fc565b60405180910390a16113338288888888612903565b61134082888888886129e6565b61134d82888888886129fa565b8192505050949350505050565b60006003600083815260200190815260200160002060000160009054906101000a900467ffffffffffffffff1667ffffffffffffffff169050919050565b7fb3b3f3b703cd84ce352197dcff232b1b5d3cfb2025ce47cf04742d0651f1af8881565b60006113c6612a55565b905090565b60008061142c6114247f150214d74d59b7d1e90c73fc22ef3d991dd0a76b046543d4d80ab92d2a50328f89896040516020016114099392919061696b565b6040516020818303038152906040528051906020012061246c565b868686612486565b905061144987828860405180602001604052806000815250612a5f565b91505095945050505050565b600061146082612a7f565b9050919050565b60006009600084815260200190815260200160002060030160008373ffffffffffffffffffffffffffffffffffffffff1673ffffffffffffffffffffffffffffffffffffffff16815260200190815260200160002060009054906101000a900460ff16905092915050565b6000806114e1868686866120a2565b9050600060078111156114f7576114f66159ef565b5b61150082611455565b6007811115611512576115116159ef565b5b14611552576040517f08c379a0000000000000000000000000000000000000000000000000000000008152600401611549906169ee565b60405180910390fd5b6003600082815260200190815260200160002060000160089054906101000a900473ffffffffffffffffffffffffffffffffffffffff1673ffffffffffffffffffffffffffffffffffffffff166115a761263d565b73ffffffffffffffffffffffffffffffffffffffff16146115fd576040517f08c379a00000000000000000000000000000000000000000000000000000000081526004016115f490616a80565b60405180910390fd5b61160986868686612c52565b915050949350505050565b60607f000000000000000000000000000000000000000000000000000000000000000073ffffffffffffffffffffffffffffffffffffffff16634bf5d7e96040518163ffffffff1660e01b8152600401600060405180830381865afa9250505080156116a357506040513d6000823e3d601f19601f820116820180604052508101906116a09190616b10565b60015b6116e4576040518060400160405280601d81526020017f6d6f64653d626c6f636b6e756d6265722666726f6d3d64656661756c7400000081525090506116e9565b809150505b90565b600080600080600960008681526020019081526020016000209050806000015481600101548260020154935093509350509193909250565b60606040518060400160405280600181526020017f3100000000000000000000000000000000000000000000000000000000000000815250905090565b60008061176c61263d565b905061178984828560405180602001604052806000815250612a5f565b91505092915050565b60008061179d61263d565b90506117f087828888888080601f016020809104026020016040519081016040528093929190818152602001838380828437600081840152601f19601f82011690508083019250505050505050876124b1565b91505095945050505050565b600080600b6000018054905090506000810361181d57600a54915050611969565b6000600b6000016001836118319190616b59565b8154811061184257611841616b8d565b5b906000526020600020016040518060400160405290816000820160009054906101000a900463ffffffff1663ffffffff1663ffffffff1681526020016000820160049054906101000a90047bffffffffffffffffffffffffffffffffffffffffffffffffffffffff167bffffffffffffffffffffffffffffffffffffffffffffffffffffffff167bffffffffffffffffffffffffffffffffffffffffffffffffffffffff1681525050905083816000015163ffffffff161161192a5780602001517bffffffffffffffffffffffffffffffffffffffffffffffffffffffff1692505050611969565b61194661193685612c6a565b600b612cbd90919063ffffffff16565b7bffffffffffffffffffffffffffffffffffffffffffffffffffffffff16925050505b919050565b611976610c60565b73ffffffffffffffffffffffffffffffffffffffff1661199461263d565b73ffffffffffffffffffffffffffffffffffffffff16146119ea576040517f08c379a00000000000000000000000000000000000000000000000000000000081526004016119e19061644e565b60405180910390fd5b3073ffffffffffffffffffffffffffffffffffffffff16611a09610c60565b73ffffffffffffffffffffffffffffffffffffffff1614611a59576000611a2e612645565b604051611a3c929190616387565b604051809103902090505b80611a526004612652565b03611a4757505b611a6281612db3565b50565b600080611a7061263d565b9050611ac286828787878080601f016020809104026020016040519081016040528093929190818152602001838380828437600081840152601f19601f82011690508083019250505050505050612a5f565b915050949350505050565b6000611adb85858585612df8565b9050949350505050565b600060608060008060006060611b2560007f00000000000000000000000000000000000000000000000000000000000000006132ea90919063ffffffff16565b611b5960017f00000000000000000000000000000000000000000000000000000000000000006132ea90919063ffffffff16565b46306000801b600067ffffffffffffffff811115611b7a57611b796151f7565b5b604051908082528060200260200182016040528015611ba85781602001602082028036833780820191505090505b507f0f00000000000000000000000000000000000000000000000000000000000000959493929190965096509650965096509650965090919293949596565b60007f000000000000000000000000000000000000000000000000000000000000000073ffffffffffffffffffffffffffffffffffffffff166391ddadf46040518163ffffffff1660e01b8152600401602060405180830381865afa925050508015611c7157506040513d601f19601f82011682018060405250810190611c6e9190616be8565b60015b611c8557611c7e4361339a565b9050611c8a565b809150505b90565b60006064905090565b6000611ca38484846133ef565b90509392505050565b600080600b6000018054905014611cea57611cc7600b613496565b7bffffffffffffffffffffffffffffffffffffffffffffffffffffffff16611cee565b600a545b905090565b611cfb610c60565b73ffffffffffffffffffffffffffffffffffffffff16611d1961263d565b73ffffffffffffffffffffffffffffffffffffffff1614611d6f576040517f08c379a0000000000000000000000000000000000000000000000000000000008152600401611d669061644e565b60405180910390fd5b3073ffffffffffffffffffffffffffffffffffffffff16611d8e610c60565b73ffffffffffffffffffffffffffffffffffffffff1614611dde576000611db3612645565b604051611dc1929190616387565b604051809103902090505b80611dd76004612652565b03611dcc57505b611de781613500565b50565b600080600c60009054906101000a900473ffffffffffffffffffffffffffffffffffffffff1673ffffffffffffffffffffffffffffffffffffffff1663d45c4435600d6000868152602001908152602001600020546040518263ffffffff1660e01b8152600401611e5b9190615959565b602060405180830381865afa158015611e78573d6000803e3d6000fd5b505050506040513d601f19601f82011682018060405250810190611e9c9190616575565b905060018114611eac5780611eaf565b60005b915050919050565b6000611ec161359f565b905090565b600063bc197c8160e01b905095945050505050565b60006003600083815260200190815260200160002060010160009054906101000a900467ffffffffffffffff1667ffffffffffffffff169050919050565b611f21610c60565b73ffffffffffffffffffffffffffffffffffffffff16611f3f61263d565b73ffffffffffffffffffffffffffffffffffffffff1614611f95576040517f08c379a0000000000000000000000000000000000000000000000000000000008152600401611f8c9061644e565b60405180910390fd5b3073ffffffffffffffffffffffffffffffffffffffff16611fb4610c60565b73ffffffffffffffffffffffffffffffffffffffff1614612004576000611fd9612645565b604051611fe7929190616387565b604051809103902090505b80611ffd6004612652565b03611ff257505b6000808573ffffffffffffffffffffffffffffffffffffffff1685858560405161202f929190616387565b60006040518083038185875af1925050503d806000811461206c576040519150601f19603f3d011682016040523d82523d6000602084013e612071565b606091505b50915091506120998282604051806060016040528060288152602001617bd4602891396135a9565b50505050505050565b6000848484846040516020016120bb9493929190616c15565b6040516020818303038152906040528051906020012060001c9050949350505050565b6000600c60009054906101000a900473ffffffffffffffffffffffffffffffffffffffff16905090565b60606040518060400160405280602081526020017f737570706f72743d627261766f2671756f72756d3d666f722c6162737461696e815250905090565b7f150214d74d59b7d1e90c73fc22ef3d991dd0a76b046543d4d80ab92d2a50328f81565b612171610c60565b73ffffffffffffffffffffffffffffffffffffffff1661218f61263d565b73ffffffffffffffffffffffffffffffffffffffff16146121e5576040517f08c379a00000000000000000000000000000000000000000000000000000000081526004016121dc9061644e565b60405180910390fd5b3073ffffffffffffffffffffffffffffffffffffffff16612204610c60565b73ffffffffffffffffffffffffffffffffffffffff1614612254576000612229612645565b604051612237929190616387565b604051809103902090505b8061224d6004612652565b0361224257505b61225d816135cb565b50565b6000612274838361226f613653565b6133ef565b905092915050565b612284610c60565b73ffffffffffffffffffffffffffffffffffffffff166122a261263d565b73ffffffffffffffffffffffffffffffffffffffff16146122f8576040517f08c379a00000000000000000000000000000000000000000000000000000000081526004016122ef9061644e565b60405180910390fd5b3073ffffffffffffffffffffffffffffffffffffffff16612317610c60565b73ffffffffffffffffffffffffffffffffffffffff161461236757600061233c612645565b60405161234a929190616387565b604051809103902090505b806123606004612652565b0361235557505b6123708161366a565b50565b600063f23a6e6160e01b905095945050505050565b6000612393826136af565b9050919050565b7f000000000000000000000000000000000000000000000000000000000000000081565b6000600c60009054906101000a900473ffffffffffffffffffffffffffffffffffffffff16905090565b60007f6e665ced000000000000000000000000000000000000000000000000000000007bffffffffffffffffffffffffffffffffffffffffffffffffffffffff1916827bffffffffffffffffffffffffffffffffffffffffffffffffffffffff1916148061245b575061245a82613777565b5b9050919050565b6000600754905090565b600061247f612479613993565b83613a4a565b9050919050565b600080600061249787878787613a8b565b915091506124a481613b6d565b8192505050949350505050565b600080600360008881526020019081526020016000209050600160078111156124dd576124dc6159ef565b5b6124e688611455565b60078111156124f8576124f76159ef565b5b14612538576040517f08c379a000000000000000000000000000000000000000000000000000000000815260040161252f90616ce1565b60405180910390fd5b6000612567878360000160009054906101000a900467ffffffffffffffff1667ffffffffffffffff16866133ef565b90506125768888888488613cd3565b60008451036125d8578673ffffffffffffffffffffffffffffffffffffffff167fb8e138887d0aa13bab447e82de9d5c1777041ecd21ca36ba824ff1e6c07ddda4898884896040516125cb9493929190616d01565b60405180910390a261262f565b8673ffffffffffffffffffffffffffffffffffffffff167fe2babfbac5889a709b63bb7f598b324e08bc5a4fb9ec647fb3cbc9ec07eb87128988848989604051612626959493929190616d97565b60405180910390a25b809250505095945050505050565b600033905090565b3660008036915091509091565b600061265d82613ed7565b15612694576040517f3db2a12a00000000000000000000000000000000000000000000000000000000815260040160405180910390fd5b60008260000160009054906101000a9004600f0b905082600101600082600f0b600f0b815260200190815260200160002054915082600101600082600f0b600f0b815260200190815260200160002060009055600181018360000160006101000a8154816fffffffffffffffffffffffffffffffff0219169083600f0b6fffffffffffffffffffffffffffffffff16021790555050919050565b612736611c8d565b811115612778576040517f08c379a000000000000000000000000000000000000000000000000000000000815260040161276f90616e90565b60405180910390fd5b6000612782611cac565b90506000811415801561279d57506000600b60000180549050145b1561288f57600b6000016040518060400160405280600063ffffffff1681526020016127c884613f0c565b7bffffffffffffffffffffffffffffffffffffffffffffffffffffffff168152509080600181540180825580915050600190039060005260206000200160009091909190915060008201518160000160006101000a81548163ffffffff021916908363ffffffff16021790555060208201518160000160046101000a8154817bffffffffffffffffffffffffffffffffffffffffffffffffffffffff02191690837bffffffffffffffffffffffffffffffffffffffffffffffffffffffff16021790555050505b6128c46128aa61289d611be7565b65ffffffffffff16612c6a565b6128b384613f0c565b600b613f779092919063ffffffff16565b50507f0553476bf02ef2726e8ce5ced78d63e26e602e4a2257b1f559418e24b463399781836040516128f7929190616942565b60405180910390a15050565b3073ffffffffffffffffffffffffffffffffffffffff16612922610c60565b73ffffffffffffffffffffffffffffffffffffffff16146129df5760005b84518110156129dd573073ffffffffffffffffffffffffffffffffffffffff1685828151811061297357612972616b8d565b5b602002602001015173ffffffffffffffffffffffffffffffffffffffff16036129cc576129cb8382815181106129ac576129ab616b8d565b5b6020026020010151805190602001206004613f9490919063ffffffff16565b5b806129d690616eb0565b9050612940565b505b5050505050565b6129f38585858585614010565b5050505050565b3073ffffffffffffffffffffffffffffffffffffffff16612a19610c60565b73ffffffffffffffffffffffffffffffffffffffff1614612a4e57612a3e6004613ed7565b612a4d57612a4c60046140ae565b5b5b5050505050565b6000600654905090565b6000612a7585858585612a70613653565b6124b1565b9050949350505050565b600080612a8b8361412f565b905060046007811115612aa157612aa06159ef565b5b816007811115612ab457612ab36159ef565b5b14612ac25780915050612c4d565b6000600d60008581526020019081526020016000205490506000801b8103612aee578192505050612c4d565b600c60009054906101000a900473ffffffffffffffffffffffffffffffffffffffff1673ffffffffffffffffffffffffffffffffffffffff16632ab0f529826040518263ffffffff1660e01b8152600401612b499190615959565b602060405180830381865afa158015612b66573d6000803e3d6000fd5b505050506040513d601f19601f82011682018060405250810190612b8a9190616f24565b15612b9a57600792505050612c4d565b600c60009054906101000a900473ffffffffffffffffffffffffffffffffffffffff1673ffffffffffffffffffffffffffffffffffffffff1663584b153e826040518263ffffffff1660e01b8152600401612bf59190615959565b602060405180830381865afa158015612c12573d6000803e3d6000fd5b505050506040513d601f19601f82011682018060405250810190612c369190616f24565b15612c4657600592505050612c4d565b6002925050505b919050565b6000612c608585858561425b565b9050949350505050565b600063ffffffff8016821115612cb5576040517f08c379a0000000000000000000000000000000000000000000000000000000008152600401612cac90616fc3565b60405180910390fd5b819050919050565b600080836000018054905090506000808290506005831115612d3f576000612ce48461434d565b84612cef9190616b59565b9050612cfe8760000182614446565b60000160009054906101000a900463ffffffff1663ffffffff168663ffffffff161015612d2d57809150612d3d565b600181612d3a919061690e565b92505b505b6000612d508760000187858561445b565b905060008114612da457612d7387600001600183612d6e9190616b59565b614446565b60000160049054906101000a90047bffffffffffffffffffffffffffffffffffffffffffffffffffffffff16612da7565b60005b94505050505092915050565b7fc565b045403dc03c2eea82b81a0465edad9e2e7fc4d97e11421c209da93d7a9360065482604051612de6929190616942565b60405180910390a18060068190555050565b600080612e0361263d565b9050612e0f81846144ce565b612e4e576040517f08c379a0000000000000000000000000000000000000000000000000000000008152600401612e459061702f565b60405180910390fd5b6000612e58611be7565b65ffffffffffff169050612e6a611eb7565b612e8083600184612e7b9190616b59565b612260565b1015612ec1576040517f08c379a0000000000000000000000000000000000000000000000000000000008152600401612eb8906170c1565b60405180910390fd5b6000612ed688888888805190602001206120a2565b90508651885114612f1c576040517f08c379a0000000000000000000000000000000000000000000000000000000008152600401612f1390617153565b60405180910390fd5b8551885114612f60576040517f08c379a0000000000000000000000000000000000000000000000000000000008152600401612f5790617153565b60405180910390fd5b6000885111612fa4576040517f08c379a0000000000000000000000000000000000000000000000000000000008152600401612f9b906171bf565b60405180910390fd5b60006003600083815260200190815260200160002060000160009054906101000a900467ffffffffffffffff1667ffffffffffffffff161461301b576040517f08c379a000000000000000000000000000000000000000000000000000000000815260040161301290617251565b60405180910390fd5b60006130256113bc565b83613030919061690e565b9050600061303c610c81565b82613047919061690e565b90506040518060e0016040528061305d84614620565b67ffffffffffffffff1681526020018673ffffffffffffffffffffffffffffffffffffffff168152602001600060e01b7bffffffffffffffffffffffffffffffffffffffffffffffffffffffff191681526020016130ba83614620565b67ffffffffffffffff168152602001600060401b67ffffffffffffffff19168152602001600015158152602001600015158152506003600085815260200190815260200160002060008201518160000160006101000a81548167ffffffffffffffff021916908367ffffffffffffffff16021790555060208201518160000160086101000a81548173ffffffffffffffffffffffffffffffffffffffff021916908373ffffffffffffffffffffffffffffffffffffffff160217905550604082015181600001601c6101000a81548163ffffffff021916908360e01c021790555060608201518160010160006101000a81548167ffffffffffffffff021916908367ffffffffffffffff16021790555060808201518160010160086101000a81548177ffffffffffffffffffffffffffffffffffffffffffffffff021916908360401c021790555060a08201518160020160006101000a81548160ff02191690831515021790555060c08201518160020160016101000a81548160ff0219169083151502179055509050507f7d84a6263ae0d98d3329bd7b46bb4e8d6f98cd35a7adb45c274c8b7fd5ebd5e083868c8c8e5167ffffffffffffffff811115613285576132846151f7565b5b6040519080825280602002602001820160405280156132b857816020015b60608152602001906001900390816132a35790505b508d88888f6040516132d29998979695949392919061737d565b60405180910390a18295505050505050949350505050565b606060ff60001b83146133075761330083614677565b9050613394565b8180546133139061649d565b80601f016020809104026020016040519081016040528092919081815260200182805461333f9061649d565b801561338c5780601f106133615761010080835404028352916020019161338c565b820191906000526020600020905b81548152906001019060200180831161336f57829003601f168201915b505050505090505b92915050565b600065ffffffffffff80168211156133e7576040517f08c379a00000000000000000000000000000000000000000000000000000000081526004016133de9061749f565b60405180910390fd5b819050919050565b60007f000000000000000000000000000000000000000000000000000000000000000073ffffffffffffffffffffffffffffffffffffffff16633a46b1a885856040518363ffffffff1660e01b815260040161344c9291906174bf565b602060405180830381865afa158015613469573d6000803e3d6000fd5b505050506040513d601f19601f8201168201806040525081019061348d9190616575565b90509392505050565b60008082600001805490509050600081146134f5576134c4836000016001836134bf9190616b59565b614446565b60000160049054906101000a90047bffffffffffffffffffffffffffffffffffffffffffffffffffffffff166134f8565b60005b915050919050565b7f08f74ea46ef7894f65eabfb5e6e695de773a000b47c529ab559178069b226401600c60009054906101000a900473ffffffffffffffffffffffffffffffffffffffff16826040516135539291906174e8565b60405180910390a180600c60006101000a81548173ffffffffffffffffffffffffffffffffffffffff021916908373ffffffffffffffffffffffffffffffffffffffff16021790555050565b6000600854905090565b606083156135b9578290506135c4565b6135c383836146eb565b5b9392505050565b6000811161360e576040517f08c379a000000000000000000000000000000000000000000000000000000000815260040161360590617583565b60405180910390fd5b7f7e3f7f0708a84de9203036abaa450dccc85ad5ff52f78c170f3edb55cf5e882860075482604051613641929190616942565b60405180910390a18060078190555050565b606060405180602001604052806000815250905090565b7fccb45da8d5717e6c4544694297c4ba5cf151d455c9bb0ed4fc7a38411bc054616008548260405161369d929190616942565b60405180910390a18060088190555050565b60006136b9611c8d565b6136c2836117fc565b7f000000000000000000000000000000000000000000000000000000000000000073ffffffffffffffffffffffffffffffffffffffff16638e539e8c856040518263ffffffff1660e01b815260040161371b91906150fc565b602060405180830381865afa158015613738573d6000803e3d6000fd5b505050506040513d601f19601f8201168201806040525081019061375c9190616575565b61376691906175a3565b6137709190617614565b9050919050565b60008063143489d060e01b63452115d660e01b1890506000639a802a6d60e01b630342018160e01b635f398a1460e01b18189050600081837fda287a1d000000000000000000000000000000000000000000000000000000007ff2e09f740000000000000000000000000000000000000000000000000000000018181890506000837fda287a1d000000000000000000000000000000000000000000000000000000007ff2e09f740000000000000000000000000000000000000000000000000000000018189050817bffffffffffffffffffffffffffffffffffffffffffffffffffffffff1916867bffffffffffffffffffffffffffffffffffffffffffffffffffffffff191614806138c85750807bffffffffffffffffffffffffffffffffffffffffffffffffffffffff1916867bffffffffffffffffffffffffffffffffffffffffffffffffffffffff1916145b806139105750837bffffffffffffffffffffffffffffffffffffffffffffffffffffffff1916867bffffffffffffffffffffffffffffffffffffffffffffffffffffffff1916145b8061397857507f4e2312e0000000000000000000000000000000000000000000000000000000007bffffffffffffffffffffffffffffffffffffffffffffffffffffffff1916867bffffffffffffffffffffffffffffffffffffffffffffffffffffffff1916145b8061398857506139878661473b565b5b945050505050919050565b60007f000000000000000000000000000000000000000000000000000000000000000073ffffffffffffffffffffffffffffffffffffffff163073ffffffffffffffffffffffffffffffffffffffff16148015613a0f57507f000000000000000000000000000000000000000000000000000000000000000046145b15613a3c577f00000000000000000000000000000000000000000000000000000000000000009050613a47565b613a446147a5565b90505b90565b60006040517f190100000000000000000000000000000000000000000000000000000000000081528360028201528260228201526042812091505092915050565b6000807f7fffffffffffffffffffffffffffffff5d576e7357a4501ddfe92f46681b20a08360001c1115613ac6576000600391509150613b64565b600060018787878760405160008152602001604052604051613aeb9493929190617645565b6020604051602081039080840390855afa158015613b0d573d6000803e3d6000fd5b505050602060405103519050600073ffffffffffffffffffffffffffffffffffffffff168173ffffffffffffffffffffffffffffffffffffffff1603613b5b57600060019250925050613b64565b80600092509250505b94509492505050565b60006004811115613b8157613b806159ef565b5b816004811115613b9457613b936159ef565b5b0315613cd05760016004811115613bae57613bad6159ef565b5b816004811115613bc157613bc06159ef565b5b03613c01576040517f08c379a0000000000000000000000000000000000000000000000000000000008152600401613bf8906176d6565b60405180910390fd5b60026004811115613c1557613c146159ef565b5b816004811115613c2857613c276159ef565b5b03613c68576040517f08c379a0000000000000000000000000000000000000000000000000000000008152600401613c5f90617742565b60405180910390fd5b60036004811115613c7c57613c7b6159ef565b5b816004811115613c8f57613c8e6159ef565b5b03613ccf576040517f08c379a0000000000000000000000000000000000000000000000000000000008152600401613cc6906177d4565b60405180910390fd5b5b50565b60006009600087815260200190815260200160002090508060030160008673ffffffffffffffffffffffffffffffffffffffff1673ffffffffffffffffffffffffffffffffffffffff16815260200190815260200160002060009054906101000a900460ff1615613d79576040517f08c379a0000000000000000000000000000000000000000000000000000000008152600401613d7090617866565b60405180910390fd5b60018160030160008773ffffffffffffffffffffffffffffffffffffffff1673ffffffffffffffffffffffffffffffffffffffff16815260200190815260200160002060006101000a81548160ff02191690831515021790555060006002811115613de757613de66159ef565b5b60ff168460ff1603613e135782816000016000828254613e07919061690e565b92505081905550613ecf565b60016002811115613e2757613e266159ef565b5b60ff168460ff1603613e535782816001016000828254613e47919061690e565b92505081905550613ece565b600280811115613e6657613e656159ef565b5b60ff168460ff1603613e925782816002016000828254613e86919061690e565b92505081905550613ecd565b6040517f08c379a0000000000000000000000000000000000000000000000000000000008152600401613ec4906178f8565b60405180910390fd5b5b5b505050505050565b60008160000160009054906101000a9004600f0b600f0b8260000160109054906101000a9004600f0b600f0b13159050919050565b60007bffffffffffffffffffffffffffffffffffffffffffffffffffffffff8016821115613f6f576040517f08c379a0000000000000000000000000000000000000000000000000000000008152600401613f669061798a565b60405180910390fd5b819050919050565b600080613f8885600001858561483b565b91509150935093915050565b60008260000160109054906101000a9004600f0b90508183600101600083600f0b600f0b815260200190815260200160002081905550600181018360000160106101000a8154816fffffffffffffffffffffffffffffffff0219169083600f0b6fffffffffffffffffffffffffffffffff160217905550505050565b600c60009054906101000a900473ffffffffffffffffffffffffffffffffffffffff1673ffffffffffffffffffffffffffffffffffffffff1663e38335e5348686866000876040518763ffffffff1660e01b81526004016140759594939291906167bf565b6000604051808303818588803b15801561408e57600080fd5b505af11580156140a2573d6000803e3d6000fd5b50505050505050505050565b60008160000160006101000a8154816fffffffffffffffffffffffffffffffff0219169083600f0b6fffffffffffffffffffffffffffffffff16021790555060008160000160106101000a8154816fffffffffffffffffffffffffffffffff0219169083600f0b6fffffffffffffffffffffffffffffffff16021790555050565b6000806003600084815260200190815260200160002090508060020160009054906101000a900460ff1615614168576007915050614256565b8060020160019054906101000a900460ff1615614189576002915050614256565b60006141948461135a565b9050600081036141d9576040517f08c379a00000000000000000000000000000000000000000000000000000000081526004016141d0906179f6565b60405180910390fd5b60006141e3611be7565b65ffffffffffff1690508082106142005760009350505050614256565b600061420b86611edb565b9050818110614221576001945050505050614256565b61422a86614bc1565b801561423b575061423a86614c08565b5b1561424d576004945050505050614256565b60039450505050505b919050565b60008061426a86868686614c33565b90506000801b600d6000838152602001908152602001600020541461434157600c60009054906101000a900473ffffffffffffffffffffffffffffffffffffffff1673ffffffffffffffffffffffffffffffffffffffff1663c4d252f5600d6000848152602001908152602001600020546040518263ffffffff1660e01b81526004016142f79190615959565b600060405180830381600087803b15801561431157600080fd5b505af1158015614325573d6000803e3d6000fd5b50505050600d6000828152602001908152602001600020600090555b80915050949350505050565b600080820361435f5760009050614441565b6000600161436c84614d8d565b901c6001901b90506001818481614386576143856175e5565b5b048201901c9050600181848161439f5761439e6175e5565b5b048201901c905060018184816143b8576143b76175e5565b5b048201901c905060018184816143d1576143d06175e5565b5b048201901c905060018184816143ea576143e96175e5565b5b048201901c90506001818481614403576144026175e5565b5b048201901c9050600181848161441c5761441b6175e5565b5b048201901c905061443d81828581614437576144366175e5565b5b04614e6e565b9150505b919050565b60008260005281602060002001905092915050565b60005b818310156144c35760006144728484614e87565b90508463ffffffff166144858783614446565b60000160009054906101000a900463ffffffff1663ffffffff1611156144ad578092506144bd565b6001816144ba919061690e565b93505b5061445e565b819050949350505050565b6000808251905060348110156144e857600191505061461a565b60006014820384015190507f2370726f706f7365723d3078000000000000000000000000000000000000000073ffffffffffffffffffffffffffffffffffffffff19168173ffffffffffffffffffffffffffffffffffffffff1916146145535760019250505061461a565b6000806028846145639190616b59565b90505b838110156145e45760008061459788848151811061458757614586616b8d565b5b602001015160f81c60f81b614ead565b91509150816145af576001965050505050505061461a565b8060ff1660048573ffffffffffffffffffffffffffffffffffffffff16901b1793505050806145dd90616eb0565b9050614566565b508573ffffffffffffffffffffffffffffffffffffffff168173ffffffffffffffffffffffffffffffffffffffff161493505050505b92915050565b600067ffffffffffffffff801682111561466f576040517f08c379a000000000000000000000000000000000000000000000000000000000815260040161466690617a88565b60405180910390fd5b819050919050565b6060600061468483614f47565b90506000602067ffffffffffffffff8111156146a3576146a26151f7565b5b6040519080825280601f01601f1916602001820160405280156146d55781602001600182028036833780820191505090505b5090508181528360208201528092505050919050565b6000825111156146fe5781518083602001fd5b806040517f08c379a000000000000000000000000000000000000000000000000000000000815260040161473291906154d1565b60405180910390fd5b60007f01ffc9a7000000000000000000000000000000000000000000000000000000007bffffffffffffffffffffffffffffffffffffffffffffffffffffffff1916827bffffffffffffffffffffffffffffffffffffffffffffffffffffffff1916149050919050565b60007f8b73c3c69bb8fe3d512ecc4cf759cc79239f7b179b0ffacaa9a75d522b39400f7f00000000000000000000000000000000000000000000000000000000000000007f00000000000000000000000000000000000000000000000000000000000000004630604051602001614820959493929190617aa8565b60405160208183030381529060405280519060200120905090565b6000806000858054905090506000811115614ad1576000614868876001846148639190616b59565b614446565b6040518060400160405290816000820160009054906101000a900463ffffffff1663ffffffff1663ffffffff1681526020016000820160049054906101000a90047bffffffffffffffffffffffffffffffffffffffffffffffffffffffff167bffffffffffffffffffffffffffffffffffffffffffffffffffffffff167bffffffffffffffffffffffffffffffffffffffffffffffffffffffff168152505090508563ffffffff16816000015163ffffffff16111561495c576040517f08c379a000000000000000000000000000000000000000000000000000000000815260040161495390617b47565b60405180910390fd5b8563ffffffff16816000015163ffffffff16036149e0578461498a886001856149859190616b59565b614446565b60000160046101000a8154817bffffffffffffffffffffffffffffffffffffffffffffffffffffffff02191690837bffffffffffffffffffffffffffffffffffffffffffffffffffffffff160217905550614ac0565b8660405180604001604052808863ffffffff168152602001877bffffffffffffffffffffffffffffffffffffffffffffffffffffffff168152509080600181540180825580915050600190039060005260206000200160009091909190915060008201518160000160006101000a81548163ffffffff021916908363ffffffff16021790555060208201518160000160046101000a8154817bffffffffffffffffffffffffffffffffffffffffffffffffffffffff02191690837bffffffffffffffffffffffffffffffffffffffffffffffffffffffff16021790555050505b806020015185935093505050614bb9565b8560405180604001604052808763ffffffff168152602001867bffffffffffffffffffffffffffffffffffffffffffffffffffffffff168152509080600181540180825580915050600190039060005260206000200160009091909190915060008201518160000160006101000a81548163ffffffff021916908363ffffffff16021790555060208201518160000160046101000a8154817bffffffffffffffffffffffffffffffffffffffffffffffffffffffff02191690837bffffffffffffffffffffffffffffffffffffffffffffffffffffffff160217905550505060008492509250505b935093915050565b60008060096000848152602001908152602001600020905080600201548160010154614bed919061690e565b614bfe614bf98561135a565b612388565b1115915050919050565b6000806009600084815260200190815260200160002090508060000154816001015411915050919050565b600080614c42868686866120a2565b90506000614c4f82611455565b905060026007811115614c6557614c646159ef565b5b816007811115614c7857614c776159ef565b5b14158015614cab575060066007811115614c9557614c946159ef565b5b816007811115614ca857614ca76159ef565b5b14155b8015614cdb5750600780811115614cc557614cc46159ef565b5b816007811115614cd857614cd76159ef565b5b14155b614d1a576040517f08c379a0000000000000000000000000000000000000000000000000000000008152600401614d1190617bb3565b60405180910390fd5b60016003600084815260200190815260200160002060020160016101000a81548160ff0219169083151502179055507f789cf55be980739dad1d0699b93b58e806b51c9d96619bfa8fe0a28abaa7b30c82604051614d7891906150fc565b60405180910390a18192505050949350505050565b600080600090506000608084901c1115614daf57608083901c92506080810190505b6000604084901c1115614dca57604083901c92506040810190505b6000602084901c1115614de557602083901c92506020810190505b6000601084901c1115614e0057601083901c92506010810190505b6000600884901c1115614e1b57600883901c92506008810190505b6000600484901c1115614e3657600483901c92506004810190505b6000600284901c1115614e5157600283901c92506002810190505b6000600184901c1115614e65576001810190505b80915050919050565b6000818310614e7d5781614e7f565b825b905092915050565b60006002828418614e989190617614565b828416614ea5919061690e565b905092915050565b60008060008360f81c90508060ff16602f108015614ece5750603a8160ff16105b15614ee3576001603082039250925050614f42565b8060ff166040108015614ef9575060478160ff16105b15614f0e576001603782039250925050614f42565b8060ff166060108015614f24575060678160ff16105b15614f39576001605782039250925050614f42565b60008092509250505b915091565b60008060ff8360001c169050601f811115614f8e576040517fb3512b0c00000000000000000000000000000000000000000000000000000000815260040160405180910390fd5b80915050919050565b600082825260208201905092915050565b7f476f7665726e6f723a206d7573742073656e6420746f206578656375746f7200600082015250565b6000614fde601f83614f97565b9150614fe982614fa8565b602082019050919050565b6000602082019050818103600083015261500d81614fd1565b9050919050565b6000604051905090565b600080fd5b600080fd5b60007fffffffff0000000000000000000000000000000000000000000000000000000082169050919050565b61505d81615028565b811461506857600080fd5b50565b60008135905061507a81615054565b92915050565b6000602082840312156150965761509561501e565b5b60006150a48482850161506b565b91505092915050565b60008115159050919050565b6150c2816150ad565b82525050565b60006020820190506150dd60008301846150b9565b92915050565b6000819050919050565b6150f6816150e3565b82525050565b600060208201905061511160008301846150ed565b92915050565b615120816150e3565b811461512b57600080fd5b50565b60008135905061513d81615117565b92915050565b600060ff82169050919050565b61515981615143565b811461516457600080fd5b50565b60008135905061517681615150565b92915050565b600080fd5b600080fd5b600080fd5b60008083601f8401126151a1576151a061517c565b5b8235905067ffffffffffffffff8111156151be576151bd615181565b5b6020830191508360018202830111156151da576151d9615186565b5b9250929050565b600080fd5b6000601f19601f8301169050919050565b7f4e487b7100000000000000000000000000000000000000000000000000000000600052604160045260246000fd5b61522f826151e6565b810181811067ffffffffffffffff8211171561524e5761524d6151f7565b5b80604052505050565b6000615261615014565b905061526d8282615226565b919050565b600067ffffffffffffffff82111561528d5761528c6151f7565b5b615296826151e6565b9050602081019050919050565b82818337600083830152505050565b60006152c56152c084615272565b615257565b9050828152602081018484840111156152e1576152e06151e1565b5b6152ec8482856152a3565b509392505050565b600082601f8301126153095761530861517c565b5b81356153198482602086016152b2565b91505092915050565b6000819050919050565b61533581615322565b811461534057600080fd5b50565b6000813590506153528161532c565b92915050565b60008060008060008060008060e0898b0312156153785761537761501e565b5b60006153868b828c0161512e565b98505060206153978b828c01615167565b975050604089013567ffffffffffffffff8111156153b8576153b7615023565b5b6153c48b828c0161518b565b9650965050606089013567ffffffffffffffff8111156153e7576153e6615023565b5b6153f38b828c016152f4565b94505060806154048b828c01615167565b93505060a06154158b828c01615343565b92505060c06154268b828c01615343565b9150509295985092959890939650565b60006020828403121561544c5761544b61501e565b5b600061545a8482850161512e565b91505092915050565b600081519050919050565b60005b8381101561548c578082015181840152602081019050615471565b60008484015250505050565b60006154a382615463565b6154ad8185614f97565b93506154bd81856020860161546e565b6154c6816151e6565b840191505092915050565b600060208201905081810360008301526154eb8184615498565b905092915050565b600073ffffffffffffffffffffffffffffffffffffffff82169050919050565b600061551e826154f3565b9050919050565b61552e81615513565b82525050565b60006020820190506155496000830184615525565b92915050565b61555881615513565b811461556357600080fd5b50565b6000813590506155758161554f565b92915050565b600080600080608085870312156155955761559461501e565b5b60006155a387828801615566565b94505060206155b487828801615566565b93505060406155c58782880161512e565b925050606085013567ffffffffffffffff8111156155e6576155e5615023565b5b6155f2878288016152f4565b91505092959194509250565b61560781615028565b82525050565b600060208201905061562260008301846155fe565b92915050565b600067ffffffffffffffff821115615643576156426151f7565b5b602082029050602081019050919050565b600061566761566284615628565b615257565b9050808382526020820190506020840283018581111561568a57615689615186565b5b835b818110156156b3578061569f8882615566565b84526020840193505060208101905061568c565b5050509392505050565b600082601f8301126156d2576156d161517c565b5b81356156e2848260208601615654565b91505092915050565b600067ffffffffffffffff821115615706576157056151f7565b5b602082029050602081019050919050565b600061572a615725846156eb565b615257565b9050808382526020820190506020840283018581111561574d5761574c615186565b5b835b818110156157765780615762888261512e565b84526020840193505060208101905061574f565b5050509392505050565b600082601f8301126157955761579461517c565b5b81356157a5848260208601615717565b91505092915050565b600067ffffffffffffffff8211156157c9576157c86151f7565b5b602082029050602081019050919050565b60006157ed6157e8846157ae565b615257565b905080838252602082019050602084028301858111156158105761580f615186565b5b835b8181101561585757803567ffffffffffffffff8111156158355761583461517c565b5b80860161584289826152f4565b85526020850194505050602081019050615812565b5050509392505050565b600082601f8301126158765761587561517c565b5b81356158868482602086016157da565b91505092915050565b600080600080608085870312156158a9576158a861501e565b5b600085013567ffffffffffffffff8111156158c7576158c6615023565b5b6158d3878288016156bd565b945050602085013567ffffffffffffffff8111156158f4576158f3615023565b5b61590087828801615780565b935050604085013567ffffffffffffffff81111561592157615920615023565b5b61592d87828801615861565b925050606061593e87828801615343565b91505092959194509250565b61595381615322565b82525050565b600060208201905061596e600083018461594a565b92915050565b600080600080600060a086880312156159905761598f61501e565b5b600061599e8882890161512e565b95505060206159af88828901615167565b94505060406159c088828901615167565b93505060606159d188828901615343565b92505060806159e288828901615343565b9150509295509295909350565b7f4e487b7100000000000000000000000000000000000000000000000000000000600052602160045260246000fd5b60088110615a2f57615a2e6159ef565b5b50565b6000819050615a4082615a1e565b919050565b6000615a5082615a32565b9050919050565b615a6081615a45565b82525050565b6000602082019050615a7b6000830184615a57565b92915050565b60008060408385031215615a9857615a9761501e565b5b6000615aa68582860161512e565b9250506020615ab785828601615566565b9150509250929050565b6000606082019050615ad660008301866150ed565b615ae360208301856150ed565b615af060408301846150ed565b949350505050565b60008060408385031215615b0f57615b0e61501e565b5b6000615b1d8582860161512e565b9250506020615b2e85828601615167565b9150509250929050565b600080600080600060808688031215615b5457615b5361501e565b5b6000615b628882890161512e565b9550506020615b7388828901615167565b945050604086013567ffffffffffffffff811115615b9457615b93615023565b5b615ba08882890161518b565b9350935050606086013567ffffffffffffffff811115615bc357615bc2615023565b5b615bcf888289016152f4565b9150509295509295909350565b60008060008060608587031215615bf657615bf561501e565b5b6000615c048782880161512e565b9450506020615c1587828801615167565b935050604085013567ffffffffffffffff811115615c3657615c35615023565b5b615c428782880161518b565b925092505092959194509250565b600067ffffffffffffffff821115615c6b57615c6a6151f7565b5b615c74826151e6565b9050602081019050919050565b6000615c94615c8f84615c50565b615257565b905082815260208101848484011115615cb057615caf6151e1565b5b615cbb8482856152a3565b509392505050565b600082601f830112615cd857615cd761517c565b5b8135615ce8848260208601615c81565b91505092915050565b60008060008060808587031215615d0b57615d0a61501e565b5b600085013567ffffffffffffffff811115615d2957615d28615023565b5b615d35878288016156bd565b945050602085013567ffffffffffffffff811115615d5657615d55615023565b5b615d6287828801615780565b935050604085013567ffffffffffffffff811115615d8357615d82615023565b5b615d8f87828801615861565b925050606085013567ffffffffffffffff811115615db057615daf615023565b5b615dbc87828801615cc3565b91505092959194509250565b60007fff0000000000000000000000000000000000000000000000000000000000000082169050919050565b615dfd81615dc8565b82525050565b600081519050919050565b600082825260208201905092915050565b6000819050602082019050919050565b615e38816150e3565b82525050565b6000615e4a8383615e2f565b60208301905092915050565b6000602082019050919050565b6000615e6e82615e03565b615e788185615e0e565b9350615e8383615e1f565b8060005b83811015615eb4578151615e9b8882615e3e565b9750615ea683615e56565b925050600181019050615e87565b5085935050505092915050565b600060e082019050615ed6600083018a615df4565b8181036020830152615ee88189615498565b90508181036040830152615efc8188615498565b9050615f0b60608301876150ed565b615f186080830186615525565b615f2560a083018561594a565b81810360c0830152615f378184615e63565b905098975050505050505050565b600065ffffffffffff82169050919050565b615f6081615f45565b82525050565b6000602082019050615f7b6000830184615f57565b92915050565b600080600060608486031215615f9a57615f9961501e565b5b6000615fa886828701615566565b9350506020615fb98682870161512e565b925050604084013567ffffffffffffffff811115615fda57615fd9615023565b5b615fe6868287016152f4565b9150509250925092565b6000615ffb826154f3565b9050919050565b600061600d82615ff0565b9050919050565b61601d81616002565b811461602857600080fd5b50565b60008135905061603a81616014565b92915050565b6000602082840312156160565761605561501e565b5b60006160648482850161602b565b91505092915050565b600080600080600060a086880312156160895761608861501e565b5b600061609788828901615566565b95505060206160a888828901615566565b945050604086013567ffffffffffffffff8111156160c9576160c8615023565b5b6160d588828901615780565b935050606086013567ffffffffffffffff8111156160f6576160f5615023565b5b61610288828901615780565b925050608086013567ffffffffffffffff81111561612357616122615023565b5b61612f888289016152f4565b9150509295509295909350565b60008083601f8401126161525761615161517c565b5b8235905067ffffffffffffffff81111561616f5761616e615181565b5b60208301915083600182028301111561618b5761618a615186565b5b9250929050565b600080600080606085870312156161ac576161ab61501e565b5b60006161ba87828801615566565b94505060206161cb8782880161512e565b935050604085013567ffffffffffffffff8111156161ec576161eb615023565b5b6161f88782880161613c565b925092505092959194509250565b6000806040838503121561621d5761621c61501e565b5b600061622b85828601615566565b925050602061623c8582860161512e565b9150509250929050565b600080600080600060a086880312156162625761626161501e565b5b600061627088828901615566565b955050602061628188828901615566565b94505060406162928882890161512e565b93505060606162a38882890161512e565b925050608086013567ffffffffffffffff8111156162c4576162c3615023565b5b6162d0888289016152f4565b9150509295509295909350565b6000819050919050565b60006163026162fd6162f8846154f3565b6162dd565b6154f3565b9050919050565b6000616314826162e7565b9050919050565b600061632682616309565b9050919050565b6163368161631b565b82525050565b6000602082019050616351600083018461632d565b92915050565b600081905092915050565b600061636e8385616357565b935061637b8385846152a3565b82840190509392505050565b6000616394828486616362565b91508190509392505050565b6163a981615143565b82525050565b600060a0820190506163c4600083018861594a565b6163d160208301876150ed565b6163de60408301866163a0565b6163eb606083018561594a565b6163f8608083018461594a565b9695505050505050565b7f476f7665726e6f723a206f6e6c79476f7665726e616e63650000000000000000600082015250565b6000616438601883614f97565b915061644382616402565b602082019050919050565b600060208201905081810360008301526164678161642b565b9050919050565b7f4e487b7100000000000000000000000000000000000000000000000000000000600052602260045260246000fd5b600060028204905060018216806164b557607f821691505b6020821081036164c8576164c761646e565b5b50919050565b7f476f7665726e6f723a2070726f706f73616c206e6f742073756363657373667560008201527f6c00000000000000000000000000000000000000000000000000000000000000602082015250565b600061652a602183614f97565b9150616535826164ce565b604082019050919050565b600060208201905081810360008301526165598161651d565b9050919050565b60008151905061656f81615117565b92915050565b60006020828403121561658b5761658a61501e565b5b600061659984828501616560565b91505092915050565b600081519050919050565b600082825260208201905092915050565b6000819050602082019050919050565b6165d781615513565b82525050565b60006165e983836165ce565b60208301905092915050565b6000602082019050919050565b600061660d826165a2565b61661781856165ad565b9350616622836165be565b8060005b8381101561665357815161663a88826165dd565b9750616645836165f5565b925050600181019050616626565b5085935050505092915050565b600081519050919050565b600082825260208201905092915050565b6000819050602082019050919050565b600081519050919050565b600082825260208201905092915050565b60006166b38261668c565b6166bd8185616697565b93506166cd81856020860161546e565b6166d6816151e6565b840191505092915050565b60006166ed83836166a8565b905092915050565b6000602082019050919050565b600061670d82616660565b616717818561666b565b9350836020820285016167298561667c565b8060005b85811015616765578484038952815161674685826166e1565b9450616751836166f5565b925060208a0199505060018101905061672d565b50829750879550505050505092915050565b6000819050919050565b60008160001b9050919050565b60006167a96167a461679f84616777565b616781565b615322565b9050919050565b6167b98161678e565b82525050565b600060a08201905081810360008301526167d98188616602565b905081810360208301526167ed8187615e63565b905081810360408301526168018186616702565b905061681060608301856167b0565b61681d608083018461594a565b9695505050505050565b6000815190506168368161532c565b92915050565b6000602082840312156168525761685161501e565b5b600061686084828501616827565b91505092915050565b600060c08201905081810360008301526168838189616602565b905081810360208301526168978188615e63565b905081810360408301526168ab8187616702565b90506168ba60608301866167b0565b6168c7608083018561594a565b6168d460a08301846150ed565b979650505050505050565b7f4e487b7100000000000000000000000000000000000000000000000000000000600052601160045260246000fd5b6000616919826150e3565b9150616924836150e3565b925082820190508082111561693c5761693b6168df565b5b92915050565b600060408201905061695760008301856150ed565b61696460208301846150ed565b9392505050565b6000606082019050616980600083018661594a565b61698d60208301856150ed565b61699a60408301846163a0565b949350505050565b7f476f7665726e6f723a20746f6f206c61746520746f2063616e63656c00000000600082015250565b60006169d8601c83614f97565b91506169e3826169a2565b602082019050919050565b60006020820190508181036000830152616a07816169cb565b9050919050565b7f476f7665726e6f723a206f6e6c792070726f706f7365722063616e2063616e6360008201527f656c000000000000000000000000000000000000000000000000000000000000602082015250565b6000616a6a602283614f97565b9150616a7582616a0e565b604082019050919050565b60006020820190508181036000830152616a9981616a5d565b9050919050565b6000616ab3616aae84615c50565b615257565b905082815260208101848484011115616acf57616ace6151e1565b5b616ada84828561546e565b509392505050565b600082601f830112616af757616af661517c565b5b8151616b07848260208601616aa0565b91505092915050565b600060208284031215616b2657616b2561501e565b5b600082015167ffffffffffffffff811115616b4457616b43615023565b5b616b5084828501616ae2565b91505092915050565b6000616b64826150e3565b9150616b6f836150e3565b9250828203905081811115616b8757616b866168df565b5b92915050565b7f4e487b7100000000000000000000000000000000000000000000000000000000600052603260045260246000fd5b616bc581615f45565b8114616bd057600080fd5b50565b600081519050616be281616bbc565b92915050565b600060208284031215616bfe57616bfd61501e565b5b6000616c0c84828501616bd3565b91505092915050565b60006080820190508181036000830152616c2f8187616602565b90508181036020830152616c438186615e63565b90508181036040830152616c578185616702565b9050616c66606083018461594a565b95945050505050565b7f476f7665726e6f723a20766f7465206e6f742063757272656e746c792061637460008201527f6976650000000000000000000000000000000000000000000000000000000000602082015250565b6000616ccb602383614f97565b9150616cd682616c6f565b604082019050919050565b60006020820190508181036000830152616cfa81616cbe565b9050919050565b6000608082019050616d1660008301876150ed565b616d2360208301866163a0565b616d3060408301856150ed565b8181036060830152616d428184615498565b905095945050505050565b600082825260208201905092915050565b6000616d698261668c565b616d738185616d4d565b9350616d8381856020860161546e565b616d8c816151e6565b840191505092915050565b600060a082019050616dac60008301886150ed565b616db960208301876163a0565b616dc660408301866150ed565b8181036060830152616dd88185615498565b90508181036080830152616dec8184616d5e565b90509695505050505050565b7f476f7665726e6f72566f74657351756f72756d4672616374696f6e3a2071756f60008201527f72756d4e756d657261746f72206f7665722071756f72756d44656e6f6d696e6160208201527f746f720000000000000000000000000000000000000000000000000000000000604082015250565b6000616e7a604383614f97565b9150616e8582616df8565b606082019050919050565b60006020820190508181036000830152616ea981616e6d565b9050919050565b6000616ebb826150e3565b91507fffffffffffffffffffffffffffffffffffffffffffffffffffffffffffffffff8203616eed57616eec6168df565b5b600182019050919050565b616f01816150ad565b8114616f0c57600080fd5b50565b600081519050616f1e81616ef8565b92915050565b600060208284031215616f3a57616f3961501e565b5b6000616f4884828501616f0f565b91505092915050565b7f53616665436173743a2076616c756520646f65736e27742066697420696e203360008201527f3220626974730000000000000000000000000000000000000000000000000000602082015250565b6000616fad602683614f97565b9150616fb882616f51565b604082019050919050565b60006020820190508181036000830152616fdc81616fa0565b9050919050565b7f476f7665726e6f723a2070726f706f7365722072657374726963746564000000600082015250565b6000617019601d83614f97565b915061702482616fe3565b602082019050919050565b600060208201905081810360008301526170488161700c565b9050919050565b7f476f7665726e6f723a2070726f706f73657220766f7465732062656c6f77207060008201527f726f706f73616c207468726573686f6c64000000000000000000000000000000602082015250565b60006170ab603183614f97565b91506170b68261704f565b604082019050919050565b600060208201905081810360008301526170da8161709e565b9050919050565b7f476f7665726e6f723a20696e76616c69642070726f706f73616c206c656e677460008201527f6800000000000000000000000000000000000000000000000000000000000000602082015250565b600061713d602183614f97565b9150617148826170e1565b604082019050919050565b6000602082019050818103600083015261716c81617130565b9050919050565b7f476f7665726e6f723a20656d7074792070726f706f73616c0000000000000000600082015250565b60006171a9601883614f97565b91506171b482617173565b602082019050919050565b600060208201905081810360008301526171d88161719c565b9050919050565b7f476f7665726e6f723a2070726f706f73616c20616c726561647920657869737460008201527f7300000000000000000000000000000000000000000000000000000000000000602082015250565b600061723b602183614f97565b9150617246826171df565b604082019050919050565b6000602082019050818103600083015261726a8161722e565b9050919050565b600081519050919050565b600082825260208201905092915050565b6000819050602082019050919050565b600082825260208201905092915050565b60006172b982615463565b6172c3818561729d565b93506172d381856020860161546e565b6172dc816151e6565b840191505092915050565b60006172f383836172ae565b905092915050565b6000602082019050919050565b600061731382617271565b61731d818561727c565b93508360208202850161732f8561728d565b8060005b8581101561736b578484038952815161734c85826172e7565b9450617357836172fb565b925060208a01995050600181019050617333565b50829750879550505050505092915050565b600061012082019050617393600083018c6150ed565b6173a0602083018b615525565b81810360408301526173b2818a616602565b905081810360608301526173c68189615e63565b905081810360808301526173da8188617308565b905081810360a08301526173ee8187616702565b90506173fd60c08301866150ed565b61740a60e08301856150ed565b81810361010083015261741d8184615498565b90509a9950505050505050505050565b7f53616665436173743a2076616c756520646f65736e27742066697420696e203460008201527f3820626974730000000000000000000000000000000000000000000000000000602082015250565b6000617489602683614f97565b91506174948261742d565b604082019050919050565b600060208201905081810360008301526174b88161747c565b9050919050565b60006040820190506174d46000830185615525565b6174e160208301846150ed565b9392505050565b60006040820190506174fd6000830185615525565b61750a6020830184615525565b9392505050565b7f476f7665726e6f7253657474696e67733a20766f74696e6720706572696f642060008201527f746f6f206c6f7700000000000000000000000000000000000000000000000000602082015250565b600061756d602783614f97565b915061757882617511565b604082019050919050565b6000602082019050818103600083015261759c81617560565b9050919050565b60006175ae826150e3565b91506175b9836150e3565b92508282026175c7816150e3565b915082820484148315176175de576175dd6168df565b5b5092915050565b7f4e487b7100000000000000000000000000000000000000000000000000000000600052601260045260246000fd5b600061761f826150e3565b915061762a836150e3565b92508261763a576176396175e5565b5b828204905092915050565b600060808201905061765a600083018761594a565b61766760208301866163a0565b617674604083018561594a565b617681606083018461594a565b95945050505050565b7f45434453413a20696e76616c6964207369676e61747572650000000000000000600082015250565b60006176c0601883614f97565b91506176cb8261768a565b602082019050919050565b600060208201905081810360008301526176ef816176b3565b9050919050565b7f45434453413a20696e76616c6964207369676e6174757265206c656e67746800600082015250565b600061772c601f83614f97565b9150617737826176f6565b602082019050919050565b6000602082019050818103600083015261775b8161771f565b9050919050565b7f45434453413a20696e76616c6964207369676e6174757265202773272076616c60008201527f7565000000000000000000000000000000000000000000000000000000000000602082015250565b60006177be602283614f97565b91506177c982617762565b604082019050919050565b600060208201905081810360008301526177ed816177b1565b9050919050565b7f476f7665726e6f72566f74696e6753696d706c653a20766f746520616c72656160008201527f6479206361737400000000000000000000000000000000000000000000000000602082015250565b6000617850602783614f97565b915061785b826177f4565b604082019050919050565b6000602082019050818103600083015261787f81617843565b9050919050565b7f476f7665726e6f72566f74696e6753696d706c653a20696e76616c696420766160008201527f6c756520666f7220656e756d20566f7465547970650000000000000000000000602082015250565b60006178e2603583614f97565b91506178ed82617886565b604082019050919050565b60006020820190508181036000830152617911816178d5565b9050919050565b7f53616665436173743a2076616c756520646f65736e27742066697420696e203260008201527f3234206269747300000000000000000000000000000000000000000000000000602082015250565b6000617974602783614f97565b915061797f82617918565b604082019050919050565b600060208201905081810360008301526179a381617967565b9050919050565b7f476f7665726e6f723a20756e6b6e6f776e2070726f706f73616c206964000000600082015250565b60006179e0601d83614f97565b91506179eb826179aa565b602082019050919050565b60006020820190508181036000830152617a0f816179d3565b9050919050565b7f53616665436173743a2076616c756520646f65736e27742066697420696e203660008201527f3420626974730000000000000000000000000000000000000000000000000000602082015250565b6000617a72602683614f97565b9150617a7d82617a16565b604082019050919050565b60006020820190508181036000830152617aa181617a65565b9050919050565b600060a082019050617abd600083018861594a565b617aca602083018761594a565b617ad7604083018661594a565b617ae460608301856150ed565b617af16080830184615525565b9695505050505050565b7f436865636b706f696e743a2064656372656173696e67206b6579730000000000600082015250565b6000617b31601b83614f97565b9150617b3c82617afb565b602082019050919050565b60006020820190508181036000830152617b6081617b24565b9050919050565b7f476f7665726e6f723a2070726f706f73616c206e6f7420616374697665000000600082015250565b6000617b9d601d83614f97565b9150617ba882617b67565b602082019050919050565b60006020820190508181036000830152617bcc81617b90565b905091905056fe476f7665726e6f723a2072656c617920726576657274656420776974686f7574206d657373616765a2646970667358221220c8bb5a9cd656e9822a964ac82006713fdfaaa0cb86c5f790e29c877b59ed0ea864736f6c63430008130033",
  "linkReferences": {},
  "deployedLinkReferences": {}
}